:100000000C94CC000C94EB000C94EB000C94EB00E3
:100010000C94EB000C94EB000C94EB000C94EB00B4
:100020000C94EB000C94EB000C94EB000C94EB00A4
:100030000C94EB000C94EB000C94DB060C94EB009E
:100040000C94EB000C948E070C9434050C9465050D
:100050000C94EB000C94EB000C94EB000C94EB0074
:100060000C94EB000C94EB000C94EB000C94EB0064
:100070000C94EB000C94EB000C94EB000C94EB0054
:100080000C94EB000C94EB000C94EB003136330035
:10009000322E3131006E616E00696E660000407A6A
:1000A00010F35A00A0724E18090010A5D4E8000001
:1000B000E87648170000E40B54020000CA9A3B009F
:1000C0000000E1F505000080969800000040420F16
:1000D000000000A08601000000102700000000E8DA
:1000E00003000000006400000000000A000000009F
:1000F000000100000000002C76D888DC674F082340
:10010000DFC1DFAE59E1B1B796E5E3E453C63AE6A5
:1001100051997696E8E6C28426EB898C9B62ED4085
:100120007C6FFCEFBC9C9F40F2BAA56FA5F49005D4
:100130005A2AF75C936B6CF9676DC11BFCE0E40D08
:1001400047FEF520E6B500D0ED902E0300943577FC
:10015000050080841E080000204E0A000000C80C24
:10016000333333330F986E12831141EF8D2114898D
:100170003BE65516CFFEE6DB18D1844B381BF77CE7
:100180001D901DA4BBE424203284725E228100C92C
:10019000F124ECA1E53D270011241FBECFEFD0E1F3
:1001A000DEBFCDBF13E0A0E0B1E0EEECFEE200E088
:1001B0000BBF02C007900D92A638B107D9F724E013
:1001C000A6E8B3E001C01D92AC3DB207E1F70E9482
:1001D00021040C9465170C9400000F931F93CF9388
:1001E000DF93CDB7DEB764970FB6F894DEBF0FBECE
:1001F000CDBF19821A821B821C82FE01359680E1D6
:10020000DF011D928A95E9F70E94CA0F6091D80418
:100210007091D90480E090E00E94761429EB3CEFC5
:1002200047E85CE30E9404152CEE31E548E95FE302
:100230000E9411149F938F937F936F9383E493E0B5
:100240009F938F938E010F5F1F4F1F930F930E94F9
:10025000D81660E080E00E945F09C8010E94E10DAD
:100260000FB6F894DEBF0FBECDBF64960FB6F894FC
:10027000DEBF0FBECDBFDF91CF911F910F910895CB
:100280000E944B060C942009CF92DF92EF92FF92CE
:100290000F931F93CF93DF938AE0D82EC0E0D0E076
:1002A00005E010E094E1C92E8091860390918703C8
:1002B000C817D9075CF57E018FEFE81AF80A6D2D93
:1002C00080E00E945F0980E593E00E94E10D80914B
:1002D0008803909189038C0F9D1FB8010E947B15A4
:1002E000EC016D2D80E00E945F09CC9EC001CD9E87
:1002F000900D112486579C4F0E94E10D8AE090E0FA
:100300000E945F078AE0D80EE701CECFDF91CF9140
:100310001F910F91FF90EF90DF90CF900895EF9293
:10032000FF920F931F93CF93DF939C01E09088037C
:10033000F0908903C0918603D0918703C7018C0F89
:100340009D1F05E010E0B8010E947B1564E1689FE5
:10035000A001699F500D1124B901CA0186579C4F15
:100360000E949416C530D10534F42196D0938703AA
:10037000C093860308C0C701B8010E947B15909303
:10038000890380938803DF91CF911F910F91FF9094
:10039000EF900C94440180E00E94DE0860E080E071
:1003A0000C945F0980919A0490919B048115994760
:1003B00090F08091A2049091A3048115994758F080
:1003C0000E94B1040E94010E66EF7FEF86EF9FEF5F
:1003D0000E94B90EE7CF8CED95E00E945F070E9466
:1003E000BC040E949D0E20919B0430E080919D04EE
:1003F00090E0A901480F591F2091A30430E080919B
:10040000A10490E0820F931F8417950758F44AE0E7
:1004100050E06BE170E085EE9FEF0E94E90E0E94D4
:10042000D3040DC04817590750F44AE050E065EE78
:100430007FEF8BE190E00E94E90E0E94CD0480EDF9
:1004400097E00C945F07CF93DF930E94010ECAE9F7
:10045000D4E0898122968093F003863940F46EE0DF
:1004600070E08EE090E00E94B90E0E94C70424E084
:10047000C43AD20771F780919E0490919F04811530
:10048000974908F448C00E949D0E88EC90E00E94B5
:100490005F0780919A0490919B04811529E7920748
:1004A00050F02091A2043091A3042115394718F08F
:1004B0000E94D2012AC0892F992720919D0430E003
:1004C000820F931F4091A30450E02091A10430E0DB
:1004D000240F351F2817390758F44CE050E064E129
:1004E00070E08CEE9FEF0E94E90E0E94D3040DC0D5
:1004F0008217930750F44CE050E06CEE7FEF84E1FC
:1005000090E00E94E90E0E94CD0484EA96E0DF911B
:10051000CF910C945F0780919C0490919D0481156C
:1005200021EA9207A8F0292F269526952695209353
:10053000EF0360E073E10E946715CB016093EE0367
:10054000622F70E00E94B90EDF91CF910C94DF040E
:100550002091A0043091A104211541EA3407A0F0B4
:10056000C90160E073E10E9467156093EF03832F78
:100570008695869586958093EE0390E00E94B90E4D
:10058000DF91CF910C94D904DF91CF9108954AE087
:1005900050E06BE170E085EE9FEF0C94E90E4AE0CD
:1005A00050E06AE070E088EF9FEF0C94E90E4AE0BB
:1005B00050E065EE7FEF8BE190E00C94E90E4AE0AD
:1005C00050E068EF7FEF8AE090E00C94E90E4AE09B
:1005D00050E065E370E08BEC9FEF0C94E90E90E047
:1005E000BC010E94B90E81E020919E0430919F04CD
:1005F0002115374908F080E008950C949D0E7894F9
:100600000E94D20F0E9486070E944B060E9420097A
:100610000C944F0F80919A0490919B0481159947F7
:1006200080F08091A2049091A3048115994748F02D
:100630000E94010E66EF7FEF86EF9FEF0E94B90EDA
:10064000E9CF8CED95E00E945F070E949D0E2091FE
:100650009B0430E080919D0490E0A901480F591F50
:100660002091A30430E08091A10490E0820F931FB9
:100670008417950738F44AE050E06BE170E085EEAE
:100680009FEF09C04817590740F44AE050E065EE73
:100690007FEF8BE190E00E94E90E80ED97E00C94F3
:1006A0005F070F931F93CF93DF930E94010ECAE958
:1006B000D4E089812296082F10E01093F60300936E
:1006C000F5030639110534F46EE070E08EE090E039
:1006D0000E94B90E24E0C43AD20759F780919E04D3
:1006E00090919F048115974908F441C00E949D0E86
:1006F00088EC90E00E945F0780919A0490919B049F
:10070000811529E7920750F02091A2043091A304AB
:100710002115394718F00E94D20124C0892F99274A
:1007200020919D0430E0820F931F4091A30450E07C
:100730002091A10430E0240F351F2817390738F421
:100740004CE050E064E170E08CEE9FEF09C082174E
:10075000930740F44CE050E06CEE7FEF84E190E0D2
:100760000E94E90E84EA96E00E945F0738C08091FB
:100770009C0490919D04811521EA9207A0F0292FF5
:100780002695269526952093F3031092F40360E0B6
:1007900073E10E946715CB017093F2036093F1033C
:1007A000622F70E01AC02091A0043091A10421159D
:1007B00041EA3407A0F0C90160E073E10E946715C7
:1007C0007093F4036093F303832F86958695869543
:1007D0008093F1031092F20390E00E94B90EDF9132
:1007E000CF911F910F91089578940E94D20F0E948B
:1007F00086070E94DE0F0E94A9060E944B060E94F7
:1008000020090C944F0F0E948E04892BC1F0809117
:100810004003813051F4109240038093420387E6F5
:1008200093E00E948F010C94FD0281E080934003CD
:1008300082E08093420383E793E00C948F010C9451
:1008400023020E94F4030E9497050E9440010E9427
:10085000ED00CDE7D3E007EF13E080914203823053
:1008600029F50E94030484E690E00E945F07F5CF1B
:100870000E94A405809341038823D1F31F928F9394
:10088000DF93CF931F930F930E94D81687EF93E0C7
:100890000E948F01809141030F900F900F900F9055
:1008A0000F900F90823051F4809342038091420365
:1008B000813099F680E00E949D05DACF833031F4D3
:1008C0008FE00E94EF028111FBCFF0CF883019F446
:1008D0000E94C70211C0873059F40E94D7020E94BB
:1008E000CD0484EF91E00E945F070E94BC04DECF3C
:1008F000863029F40E94CF020E94D304F2CF8530C3
:1009000019F40E94DF02EBCF843019F40E94E70251
:10091000CDCF893059F60E94ED00C8CF84990EC022
:100920008FE090E00E945F07849BFECF8FE090E015
:100930000E945F0780B38295817001C080E090E0E3
:10094000089584990BC084E190E00E945F0780B312
:1009500082958F7091E08927817001C080E090E0DE
:100960000895CF93C2E06C2F82E00E94E60FCF5F24
:10097000C830C9F7CF910895CF93C1E06C2F80E0C4
:100980000E94E60FCF5FC930C9F7CF9108950E944A
:10099000BC0480E094E00C9423100E94BC0467E047
:1009A00081E00C94E60F0E94BC0462E081E00C94AC
:1009B000E60F0E94BC0463E081E00C94E60F0E9405
:1009C000BC0466E081E00C94E60F9C0140E050E03E
:1009D00084E0220F331F441F551F8A95D1F760E032
:1009E00074E284EF90E00E948F152150310930931A
:1009F000900029B90895F89490911D04E92FF0E032
:100A0000E35FFB4F808120911E04283011F4909306
:100A10001E049F5F983018F490931D0402C010923A
:100A20001D0478940895F89490911F04E92FF0E044
:100A3000EB5EFB4F80839F5F983018F490931F0408
:100A400002C010921F0420911F0490910C042913DE
:100A500003C098E090931F04559A7894089588EB0A
:100A60008AB908951AB808951F920F920FB60F927F
:100A700011240BB60F928F939F93EF93FF939CB12A
:100A800080911E048830B1F0E82FF0E0E35FFB4F67
:100A900090838F5F883018F480931E0402C01092F8
:100AA0001E0490911E0480911D04981303C088E0D9
:100AB00080931E04FF91EF919F918F910F900BBE39
:100AC0000F900FBE0F901F9018951F920F920FB6A8
:100AD0000F9211240BB60F922F938F939F93EF9346
:100AE000FF9380910C0490911F04891799F0E82FCF
:100AF000F0E0EB5EFB4F2081983011F480931F04EF
:100B00008F5F883018F480930C0402C010920C049C
:100B10002CB901C05598FF91EF919F918F912F9122
:100B20000F900BBE0F900FBE0F901F90189580E88E
:100B300095E20E94E5040C942F0590911F049830D3
:100B400009F4FFCF0C94130590911D0480911E04AD
:100B500098130C94FB0480E0089590916500282F71
:100B600030E080E0A9014170507020FF81E09E7F5D
:100B7000982B90936500809165004115510511F403
:100B800090E001C092E08D7F892B80936500809179
:100B9000650021FD02C090E001C098E0877F892BAD
:100BA00080936500809165008F7E809365008FEF54
:100BB0008ABB6BBB85E0982F9A95F1F79091650001
:100BC000946090936500982F9A95F1F79091650045
:100BD0009B7F909365008A95F1F71BBA1ABA089526
:100BE00090916500282F30E080E0A901417050709D
:100BF00020FF81E09E7F982B909365008091650097
:100C00004115510511F490E001C092E08D7F892BD0
:100C1000809365008091650021FD02C090E001C0D5
:100C200098E0877F892B80936500809165008061C3
:100C3000809365001ABA25E0822F8A95F1F780919A
:100C4000650084608093650085E18A95F1F789B33A
:100C5000909165009B7F90936500922F9A95F1F794
:100C600008951F93CF93DF9390912004992371F0FF
:100C7000182F1170CFEFDFEF812F0E94F005219721
:100C800087FD02C081E003C02097B1F780E0DF91CB
:100C9000CF911F9108958FEF80932004809164007D
:100CA0008860809364008091640080618093640018
:100CB000809164008460809364008091640081600E
:100CC0008093640080916400826080936400B89A8D
:100CD0001ABA80916500877F8093650080916500D6
:100CE0008F7E80936500809165008B7F8093650087
:100CF000809165008E7F80936500809165008D7F77
:100D000080936500C098979B07C0979880EA9FE002
:100D10000197F1F7979A04C080EA9FE00197F1F7F5
:100D2000C09A80E00E943106882351F081E00E9441
:100D30003106882311F082E001C081E08093200415
:100D4000809120048F3F11F41092200480912004A0
:100D5000089510922A0410922904109226041092E9
:100D6000250410922B0410922C0410922D04109242
:100D70002E04109222041092210410922404109246
:100D800023048FEF93E09093280480932704C59861
:100D9000C698BD9ABE9ABF9AC79A1DBC1CBC8AEA67
:100DA0008FBD82E18EBD80E094E097BD86BD87B7A0
:100DB000846087BF08951F920F920FB60F9211247F
:100DC0002F933F934F938F939F93AF93BF938091B4
:100DD000290490912A049C01285E3F4F30932A04F5
:100DE0002093290443E0283E340778F0805D934047
:100DF00090932A04809329048091250490912604DD
:100E00000196909326048093250480912504909167
:100E100026049C012F5F3F4F309326042093250426
:100E200043E0283E3407C8F0875E93409093260441
:100E30008093250480912B0490912C04A0912D0483
:100E4000B0912E040196A11DB11D80932B049093A7
:100E50002C04A0932D04B0932E0480912104909132
:100E6000220423E08F3F920710F080E094E09BBDC6
:100E70008ABD809123049091240443E08F3F94071E
:100E800010F080E094E099BD88BD80912704909196
:100E9000280423E08F3F920710F080E094E09093C5
:100EA000790080937800BF91AF919F918F914F917E
:100EB0003F912F910F900FBE0F901F90189520EA31
:100EC0003FE004C0F9013197F1F701970097D1F79E
:100ED000089510926B0480934C04982F9F5F909319
:100EE0004E0496E990936C04F89403C07894000043
:100EF000F894B09BFBCF90EC9DB98FB996E99827F9
:100F000090936A04779A789480E00895B898C0988E
:100F1000BB9AC39A80E00E94690708951F920F92BE
:100F20000FB60F920BB60F9211242F933F934F934E
:100F30005F936F937F938F939F93AF93BF93EF9341
:100F4000FF939FB120916C04292720936C0480911A
:100F50006B048823B1F490934A049C3130F01092D2
:100F60004C0410924A0491E009C0492F50E02091AE
:100F70004E0430E042175307FCF09F5F90934E04FD
:100F80001BC0482F50E060914A0470E06417750759
:100F90002CF0425B5B4FFA0190830EC041505040F1
:100FA0004617570749F4222339F090914B049F5F6D
:100FB00090934B0410924A0490914C04891750F47A
:100FC000E82FF0E0E15DFB4F20812FB990916A049A
:100FD000922711C0891731F490916A049FB9109239
:100FE0006A040BC090914E04891758F49FEF9FB983
:100FF00090916A04909590936A048F5F80936B043C
:1010000011C0B898C0981DB8B898C09880914D0488
:101010008F5F80934D04789480914A040E94740FEE
:101020000E946907FF91EF91BF91AF919F918F91BE
:101030007F916F915F914F913F912F910F900BBED8
:101040000F900FBE0F901F90189580917004089517
:1010500080917904089580936D040895982F90529B
:10106000903608F080E8805290E0FC01EE0FFF1F00
:10107000E80FF91FEE0FFF1FE050FF4F90818091A6
:101080006F04882309F49FE180E020E090FD8F5FEA
:101090002F5F253011F09695F9CF08951F93CF93C8
:1010A000DF93EC0110E005C021960E942E088F5FAF
:1010B000180F88818823C1F7812FDF91CF911F916D
:1010C00008951F93CF93DF93EC0110E007C02196A2
:1010D000F90184910E942E088F5F180F9E01FE0176
:1010E00094919923A1F7812FDF91CF911F910895BA
:1010F00080936F04089580916F040895863130F4D1
:10110000683020F460936E0480937A0408950F93FE
:101110001F93DF93CF930F92CDB7DEB7182F68548C
:10112000883018F580E069830E94310680E069818B
:101130000E94AD0580E00E943106612F660F660FA8
:10114000660F605C80E00E94AD0501E714E082E07C
:101150000E94310682E0F80161918F010E94AD0585
:10116000F4E009371F0799F723C0185081E069831D
:101170000E94310681E069810E94AD0581E00E94F4
:101180003106612F660F660F660F605C81E00E947A
:10119000AD0501E714E083E00E94310683E0F80129
:1011A00061918F010E94AD05F4E009371F0799F79F
:1011B0000F90CF91DF911F910F910895FF920F93A0
:1011C0001F93F82E18EB80E00E94310681E00E9408
:1011D000310680E0612F0E94AD0581E0612F0E9401
:1011E000AD0500E082E00E94310683E00E943106F6
:1011F00082E06F2D0E94AD0583E06F2D0E94AD054A
:101200000F5F003479F71F5F103CE9F680E00E9421
:10121000310681E00E94310680E068EB0E94AD0556
:1012200081E068EB0E94AD051F910F91FF9008953A
:1012300080E00E94DE0810926E0410927A040895F5
:1012400080E00E94310680E06FE30E94AD0580E0FF
:101250000E94310680E060EC0E94AD0580E00E94B3
:10126000310680E060E40E94AD0580E00E94310616
:1012700080E068EB0E94AD0581E00E94310681E0CC
:101280006FE30E94AD0581E00E94310681E060ECD1
:101290000E94AD0581E00E94310681E060E40E9479
:1012A000AD0581E00E94310681E068EB0E94AD054A
:1012B00080E00E94DE0881E080936D0408950F9322
:1012C0001F93182F062F809370046093790480E099
:1012D0000E94310681E00E9431060695069506952A
:1012E000085480E0602F0E94AD0581E0602F0E94CD
:1012F000AD0580E00E94310681E00E943106113484
:1013000038F080E060E40E94AD0581E0612F07C005
:10131000612F605C80E00E94AD0581E060E40E9486
:10132000AD051F910F910895EF92FF920F931F93B8
:10133000CF93DF9319EB47C00830E8F480E00E94B8
:10134000310680E0612F0E94AD0580E00E943106E9
:101350006F2D605C80E00E94AD0582E00E94F00588
:10136000C1E7D4E082E00E94F005899384E0C937A8
:10137000D807C1F71BC081E00E94310681E0612FD0
:101380000E94AD0581E00E94310681E06F2D0E9430
:10139000AD0583E00E94F005C1E7D4E083E00E9440
:1013A000F005899384E0C937D807C1F7802F6E2DE7
:1013B0000E9487080F5F88E0F80E003109F0BCCF6B
:1013C0001F5F103C31F0FF2400E037E4E32EE10E14
:1013D000B3CFE1E7F4E0119284E0E937F807D9F7F9
:1013E00010E0812F67E00E9487081F5F1031C9F766
:1013F00080916E04882319F0815080936E04DF91F0
:10140000CF911F910F91FF90EF900895EF92FF926F
:101410000F931F93E82E162F8091700487FD39C01B
:1014200000E0803408F001E0802F0E94310642E0A5
:10143000F42EF00E8F2D0E94F0058F2D0E94F005E6
:1014400090916D0492FF02C0E0949B7FE12299236A
:1014500019F41E2D182B08C0913021F41095182373
:101460001E2902C01E2D1827802F0E943106609170
:1014700070046064802F0E94AD05802F0E943106A9
:101480008F2D612F0E94AD05809170048F5F809336
:1014900070041F910F91FF90EF900895909179043F
:1014A000977061E070E002C0660F771F9A95E2F7CF
:1014B000882311F0862F02C0862F60E00E94060A62
:1014C00008952F923F924F925F926F927F928F92E8
:1014D0009F92AF92BF92CF92DF92EF92FF920F93C3
:1014E0001F93DF93CF9300D000D000D0CDB7DEB7ED
:1014F000082F162F5A83498360907004E090790476
:101500008E2D87702FEF30E0F22E01C0FF0C8A95F0
:10151000EAF7802F90E0019768E070E00E947B1569
:101520006F5FA62EBB24C50173E0880F991F7A95C3
:10153000E1F744245524481A590ACC2468E0762E51
:101540005FEF852E912CBC82AB8271C08E2D87708F
:10155000D72CD81A1D1548F48D2D811B940102C07B
:10156000359527958A95E2F7F2228D2D8C0D90E026
:101570008A9D10018B9D300C9A9D300C112480E0C7
:1015800090E09E838D8343C04D815E814770507093
:101590004115510571F5E695E695E695C1018E0F69
:1015A000911DFC01A981BA81EA0FFB1FE40DF51D15
:1015B00020E030E06D817E819491A1E7B4E08C91D0
:1015C00086958C9390FF02C080688C93119684E07E
:1015D000A937B80711F09695F2CF2F5F3F4F28300B
:1015E000310529F0AB81BC81EA0FFB1FE5CF7E837B
:1015F0006D834F585B4FFA0180818F216F2D0E94C0
:10160000060A2D813E812F5F3F4F3E832D83ED8162
:10161000E01708F4B9CF1D1508F4D12E1D19ED0CF3
:10162000CD0C862D6E2D0E945F09FF24FA941123A4
:1016300009F08CCF26960FB6F894DEBF0FBECDBF53
:10164000CF91DF911F910F91FF90EF90DF90CF909E
:10165000BF90AF909F908F907F906F905F904F90D2
:101660003F902F9008952F923F924F925F926F92EA
:101670007F928F929F92AF92BF92CF92DF92EF9222
:10168000FF920F931F93DF93CF9300D000D000D031
:10169000CDB7DEB7082F162F5A83498360907004A8
:1016A000E09079048E2D87702FEF30E0F22E01C08C
:1016B000FF0C8A95EAF7802F90E0019768E070E0D0
:1016C0000E947B156F5FA62EBB24C501A3E0880F87
:1016D000991FAA95E1F744245524481A590ACC24A5
:1016E000F8E07F2EEFEF8E2E912CBC82AB8271C082
:1016F0008E2D8770D72CD81A1D1548F48D2D811B7F
:10170000940102C0359527958A95E2F7F2228D2D36
:101710008C0D90E08A9D10018B9D300C9A9D300CB1
:10172000112480E090E09E838D8343C04D815E81D3
:10173000477050704115510571F5E695E695E695AF
:10174000C1018E0F911DFC01A981BA81EA0FFB1F17
:10175000E40DF51D20E030E06D817E819081A1E7F0
:10176000B4E08C9186958C9390FF02C080688C9336
:10177000119684E0A937B80711F09695F2CF2F5F44
:101780003F4F2830310529F0AB81BC81EA0FFB1FA8
:10179000E5CF7E836D834F585B4FFA0180818F21A7
:1017A0006F2D0E94060A2D813E812F5F3F4F3E83A1
:1017B0002D83ED81E01708F4B9CF1D1508F4D12E63
:1017C0001D19ED0CCD0C862D6E2D0E945F09FF2496
:1017D000FA94112309F08CCF26960FB6F894DEBF49
:1017E0000FBECDBFCF91DF911F910F91FF90EF9072
:1017F000DF90CF90BF90AF909F908F907F906F9031
:101800005F904F903F902F900895AF92BF92CF92EC
:10181000DF92EF92FF920F931F93CF93DF93A82E47
:10182000162FB0907004F09079048F2D87702FEFF1
:1018300030E0022F01C0000F8A95EAF7B8E0CB2E06
:10184000CFEFD0E022C08F2D8770EC2CE81A1E1548
:1018500048F48E2D811B9E0102C0359527958A95EF
:10186000E2F70223DA2C05C0802F602F0E94060ABF
:10187000DA94DD20C9F71E1508F4E12E1E19FE0CBE
:101880008B2D6F2D0E945F090FEF1123E1F6DF9181
:10189000CF911F910F91FF90EF90DF90CF90BF906D
:1018A000AF900895682F81E00E94050C08950F9372
:1018B0001F93182F80917904877021E030E0022F68
:1018C00001C0000F8A95EAF705C0802F602F0E94A3
:1018D000060A11501123C9F71F910F9108959F9285
:1018E000AF92BF92CF92DF92EF92FF920F931F932E
:1018F000082F162FF0907004E09079048F1561F492
:10190000E61618F4862F8E1904C00E945F098E2DEA
:10191000811B0E94520C5EC0DE2C6E1559F4F81625
:1019200010F48F1904C00E945F098F2D801B0E9444
:10193000570C50C08F1528F4AF2CA81A99249A94EC
:1019400009C0F81618F09924AA2404C0A82EAF18CC
:10195000992493941E1528F4BE2CB11ACC24CA9451
:1019600009C0E11618F0CC24BB2404C0B12EBE1867
:10197000CC24C39481E00E944E0ABA14B0F4EA2C3D
:10198000E694E194F90CEB0C1E1414F4EA18DC0C48
:101990008F2D6D2D0E945F0981E00E944E0AF90C87
:1019A0008F2D8919801779F715C0DB2CD694D19427
:1019B000EC0CDA0C1D1414F4DB18F90C8F2D6E2DC1
:1019C0000E945F0981E00E944E0AEC0C8E2D8C195A
:1019D000811779F7802F612F0E945F091F910F9166
:1019E000FF90EF90DF90CF90BF90AF909F900895C1
:1019F0008F929F92AF92BF92CF92DF92EF92FF921F
:101A00000F931F93CF93DF93062F982F905290360A
:101A100008F080E8805296E0899FE0011124C050D0
:101A2000DF4F188180916F04882309F41FE1E02EB5
:101A3000FF24E7FCF0948FEF90E06C010E2C02C0C5
:101A4000CC0CDD1C0A94E2F7AA24BB24AE18BF0814
:101A50000A2C02C0959587950A94E2F7D82E85E066
:101A6000882E912C8C0E9D1E10FF16C0898107FDBB
:101A700009C090E00E2C02C0880F991F0A94E2F76B
:101A80006C2D08C090E00A2C02C0959587950A94A9
:101A9000E2F76D2D0E94060A2196C815D90511F0AE
:101AA0001695E2CF07FD03C080E06C2D02C080E0F8
:101AB0006D2D0E94060ADF91CF911F910F91FF902B
:101AC000EF90DF90CF90BF90AF909F908F90089550
:101AD000FF920F931F93082FF090700410917904D8
:101AE0001770612F0E94F80C112391F06091790416
:101AF000685F8F2D0E945F09612F6850802F0E94C0
:101B0000F80C609179046850809170040E945F091C
:101B10001F910F91FF9008951F93CF93DF93EC01D6
:101B200010926F0436C01A3069F410927A048091D2
:101B30006E048F5F80936E04883059F581E00E94B7
:101B4000940927C01D3029F180917A04853160F015
:101B500010927A0480916E048F5F80936E048830B7
:101B600019F481E00E94940990917A04892F880FDA
:101B7000890F60916E04660F660F660F880F0E94D2
:101B80005F09812F0E94680D80917A048F5F809396
:101B90007A041991112339F6DF91CF911F9108959D
:101BA000CF93DF93EC0105C02196F90184910E9447
:101BB000680D9E01FE0194919923B1F7DF91CF91B9
:101BC0000895CF93DF93EC0103C021960E94680D26
:101BD00088818823D1F7DF91CF91089590E0282F55
:101BE00030E0F90183E0EE0FFF1F8A95E1F7E21B79
:101BF000F30BEF57FB4F80818F3F09F091E0892F66
:101C00000895F8949091B90480E0E9EBF4E0229112
:101C1000820F911D90939B0480939A04938180E09E
:101C20002281820F911D90939D0480939C04958145
:101C300080E02481820F911D90939F0480939E04E5
:101C4000978180E02681820F911D9093A10480935B
:101C5000A004918580E02085820F911D9093A304BC
:101C60008093A2047894F8942091C20480917D041A
:101C700090917E04820F911D3091C30420E0820F69
:101C8000931F90939704809396042091C4048091AD
:101C90007B0490917C04820F911D3091C50420E05B
:101CA000820F931F9093AF048093AE049091C7046A
:101CB00080E02091C604820F911D9093D7048093F9
:101CC000D6049091C90480E02091C804820F911D30
:101CD0009093AD048093AC049091CB0480E020916C
:101CE000CA04820F911D9093800480937F04909189
:101CF000CD0480E02091CC04820F911D9093B70415
:101D00008093B6047894F8949091D00480E0209168
:101D1000CF04820F911D9093990480939804909121
:101D2000D20480E02091D104820F911D9093D404BD
:101D30008093D304789481E00895F89481E08093AF
:101D4000810478940895F8948AE0809381047894CB
:101D500081E00895F89425E0209381048093820423
:101D6000909383046093840470938504789481E055
:101D70000895F89422E02093810480938204909344
:101D800083046093840470938504789481E00895BB
:101D900020917D0430917E04FC01E21BF30B9F0136
:101DA00080917B0490917C04681B790BF89483E00C
:101DB00080938104E09382043093830460938404CD
:101DC000709385044093860450938704789481E04F
:101DD0000895F89424E020938104809382049093E2
:101DE0008304609384047093850440938604509325
:101DF0008704789481E00895789490918F0420E18D
:101E000037E22150304011F09F3FD9F7F89496E027
:101E100090938F0480939004609391044093920474
:101E2000789481E0089581E00895F8943091C50494
:101E300020E04091C404F901E40FF11DAF0130919D
:101E4000C30420E0E091C2042E0F311DFC01E21B0F
:101E5000F30BF0937E04E0937D049B01241B350B70
:101E600030937C0420937B04909397048093960492
:101E70007093AF046093AE04789481E008957894F1
:101E80002091880480E197E2019711F02F3FE1F75C
:101E9000F89488E080938804789481E00895789499
:101EA0002091880480E197E2019711F02F3FE1F73C
:101EB000F89487E080938804789481E0089578947A
:101EC0004091880420E137E22150304011F04F3F2B
:101ED000D9F7F89429E0209388048093890490939B
:101EE0008A04789481E008959091D5049F5F90933F
:101EF000D5048B3141F4A8EBB4E0EFE4F4E00190B9
:101F00000D928150E1F78FEF80933D04809336046A
:101F100080932F04809181048F3F11F480E00DC0E5
:101F2000AFE2B4E0E1E8F4E087E001900D92815087
:101F3000E1F78FEF8093810487E0909188049F3FC1
:101F400079F0E82FF0E0E15DFB4FA8E8B4E097E01E
:101F50000D9001929150E1F79FEF90938804895F73
:101F600090918F049F3F81F0E82FF0E0E15DFB4FFF
:101F7000AFE8B4E087E00D9001928150E1F78FEF78
:101F800080938F0485E10895882311F487E00895F4
:101F900085E1089587E00E944A109093D9048093C8
:101FA000D80408958F9A97988AE090E00E945F077E
:101FB000979A84E690E00E945F070895BF9AC79AB7
:101FC000BD9ABE9A8FEF82B984BB0895482F80FFD7
:101FD0000BC095B321E030E0062E02C0220F331F64
:101FE0000A94E2F7922B0CC085B321E030E0062E74
:101FF00002C0220F331F0A94E2F7922F9095982384
:1020000095BB41FF0AC083B121E030E002C0220F3E
:10201000331F6A95E2F7822B0AC023B181E090E07A
:1020200002C0880F991F6A95E2F78095822383B9D1
:10203000089590932804809327040895809127049D
:102040009091280408959093220480932104089588
:102050008091210490912204089590932404809308
:102060002304089580912304909124040895E1E6C7
:10207000F0E0908121E030E002C0220F331F8A950A
:10208000E2F7209592239083E2E6F0E080818223BC
:102090008083089590E497B997B18770892B87B9A9
:1020A00087EC86B901C000003699FDCF84B195B1A7
:1020B000392F20E0280F311D8091DA049091DB0444
:1020C000820F931F9093DB048093DA04C901089573
:1020D0008091DA049091DB0408952F923F924F9201
:1020E0005F926F927F928F929F92AF92BF92CF92A8
:1020F000DF92EF92FF920F931F93CF93DF93CDB7B1
:10210000DEB763970FB6F894DEBF0FBECDBF7C017C
:102110001B016A01FC0117821682838181FF66C35D
:10212000BE016F5F7F4F4B01F7019381F10193FD7A
:10213000859193FF81911F01882309F453C3853250
:1021400039F493FD859193FF81911F01853239F414
:10215000B70190E00E94A61656016501E5CF10E098
:10216000512C20E02032A0F48B3269F030F4803220
:1021700059F0833269F420612CC08D3239F08033FC
:1021800039F4216026C02260246023C0286021C069
:1021900027FD27C030ED380F3A3078F426FF06C00F
:1021A000FAE01F9F300D1124132F13C06AE0569ED2
:1021B000300D1124532E20620CC08E3221F426FDE6
:1021C00011C3206406C08C3611F4206802C0883622
:1021D00041F4F10193FD859193FF81911F018111DC
:1021E000C1CF9BEB980F933018F42061805E06C03E
:1021F0009BE9980F933008F0AAC12F7E26FF16E0C6
:102200002F73722E853621F4F22FF0647F2E08C0D2
:10221000863621F4622F6068762E02C011111150AB
:1022200077FE07C01C3348F444244394410E27E052
:102230000BC0183030F4212F06C027E04CE3442EA9
:1022400003C027E017E0412C560174E0A70EB11C33
:10225000F6016081718182819381042DA4010E9425
:10226000B1156C01098100FF02C003FF06C071FCBB
:1022700007C072FC08C0612C08C03DE2632E05C097
:102280002BE2622E02C090E2692E802F8C7099F1B1
:10229000662011F084E001C083E0851510F0512C18
:1022A0000BC0581A73FC08C0B70180E290E00E948E
:1022B000A6165A94C9F7F3CF662029F0B701862DE8
:1022C00090E00E94A61603FD03C009E910E002C0D9
:1022D00005E910E0F72DF0717F2EF8018491882335
:1022E00009F476C271108052B70190E00E94A616E0
:1022F0000F5F1F4FF2CF77FE0FC04C0C04FF04C0DE
:102300008A81813309F44A94141474F5F8E0F415C1
:1023100078F588E0482E2CC076FC2AC0812F90E00A
:102320008C159D059CF06CEFC6166FEFD60674F009
:10233000772D7068772E0AC0E2E0F0E0EC0FFD1F09
:10234000E10FF11D8081803319F411501111F4CF88
:1023500077FE0EC044244394410E812F90E0C816AE
:10236000D9062CF41C1904C04424439401C010E085
:1023700077FE07C01C141D043CF496012F5F3F4FED
:1023800005C025E030E002C021E030E0662011F019
:102390002F5F3F4F112331F0412F50E04F5F5F4FD0
:1023A000240F351F452D50E02417350714F4521A19
:1023B00001C0512C872D897049F4552039F0B7019F
:1023C00080E290E00E94A6165A94F7CF662029F08A
:1023D000B701862D90E00E94A61673FC09C0552017
:1023E00039F0B70180E390E00E94A6165A94F7CF27
:1023F00077FE5FC09C2D8D2DD7FE02C090E080E05F
:10240000692E782E40E050E0C601841991099D871D
:102410008C87960126193709280D391D812F90E0E8
:10242000EE27FF27E81BF90BFF87EE87FFEF6F16FC
:102430007F0669F4B7018EE290E02B8B3A8B488BD4
:10244000598B0E94A616598948893A892B89C61446
:10245000D70454F06C857D85661577052CF4F90159
:10246000E40FF51F818101C080E371E0671A7108F4
:102470004F5F5F4FEE85FF856E167F066CF0B701EC
:1024800090E02B8B3A8B488B598B0E94A6162B8998
:102490003A8948895989CACF6C147D0439F49A81E4
:1024A000963318F4953311F404FF81E3B70190E0FB
:1024B0004BC08A81813309F00F7EB70190E00E9402
:1024C000A616111105C074FE18C085E490E017C06F
:1024D000B7018EE290E00E94A61682E06624639423
:1024E000680EF401E80FF11D8081B70190E00E94B1
:1024F000A616115041F3862DF1CF85E690E0B70185
:102500000E94A616D7FC05C0C114D10439F404FFFB
:1025100005C0D194C194D1088DE201C08BE2B7010E
:1025200090E00E94A61680E36AE0C616D1042CF063
:102530008F5FFAE0CF1AD108F7CFB70190E00E9481
:10254000A616B701C601C0960E94A61641C18336E1
:1025500031F0833779F0833509F058C021C0560136
:1025600072E0A70EB11CF6018081898301E010E0C2
:10257000640114C05601F2E0AF0EB11CF601C08038
:10258000D18026FF03C0612F70E002C06FEF7FEFA4
:10259000C6012B8B0E949B168C012B892F7715C0AF
:1025A0005601F2E0AF0EB11CF601C080D18026FFCB
:1025B00003C0612F70E002C06FEF7FEFC6012B8B6D
:1025C0000E9489168C012B892068722E23FD1AC067
:1025D000852D90E008171907A8F4B70180E290E074
:1025E0000E94A6165A94F4CFF60177FC859177FEE7
:1025F00081916F01B70190E00E94A61651105A9484
:10260000015011090115110579F7E2C0843611F066
:10261000893651F5560127FF09C0F4E0AF0EB11C11
:10262000F60160817181828193810AC0F2E0AF0E70
:10263000B11CF60160817181882777FD8095982F04
:10264000022F0F7697FF08C0909580957095619541
:102650007F4F8F4F9F4F00682AE030E0A4010E9417
:102660000717C82EC8183EC0022F853721F40F7EE9
:102670002AE030E01DC0097F8F3691F018F48835CC
:1026800059F0B0C0803719F0883711F0ABC0006145
:1026900004FF09C0046007C024FF08C0066006C02C
:1026A00028E030E005C020E130E002C020E132E067
:1026B000560107FF09C0F4E0AF0EB11CF6016081BE
:1026C00071818281938108C0F2E0AF0EB11CF601E6
:1026D0006081718180E090E0A4010E940717C82EFC
:1026E000C8180F7706FF0BC0202F2E7FC11650F49D
:1026F00004FF0AC002FD08C0202F2E7E05C0DC2C7E
:10270000202F03C0DC2C01C0D12E24FF0DC0FE0100
:10271000EC0DF11D8081803311F4297E09C022FF68
:1027200006C0D394D39404C0822F867809F0D39442
:1027300023FD13C020FF06C01C2DD51418F4150D61
:102740001D19D52CD51468F4B70180E290E02B8BCD
:102750000E94A616D3942B89F5CFD51410F45D18DA
:1027600001C0512C24FF12C0B70180E390E02B8BF5
:102770000E94A6162B8922FF17C021FF03C088E5FF
:1027800090E002C088E790E0B7010CC0822F867805
:1027900059F021FD02C080E201C08BE227FD8DE2ED
:1027A000B70190E00E94A616C11638F4B70180E385
:1027B00090E00E94A6161150F7CFCA94F401EC0DD8
:1027C000F11D8081B70190E00E94A616C110F5CFDF
:1027D000552009F4C2CCB70180E290E00E94A61611
:1027E0005A94F6CFF7018681978102C08FEF9FEF51
:1027F00063960FB6F894DEBF0FBECDBFDF91CF91C9
:102800001F910F91FF90EF90DF90CF90BF90AF900E
:102810009F908F907F906F905F904F903F902F9000
:1028200008955058BB27AA270ED0B4C0A5D030F0C9
:10283000AAD020F031F49F3F11F41EF49AC00EF498
:10284000E095E7FB90C0E92FB6D080F3BA17620796
:1028500073078407950718F071F49EF5CEC00EF447
:10286000E0950B2EBA2FA02D0B01B90190010C01A0
:10287000CA01A0011124FF27591B99F0593F50F4B8
:10288000503E68F11A16F040A22F232F342F442710
:10289000585FF3CF469537952795A795F040539508
:1028A000C9F77EF41F16BA0B620B730B840BBAF0D8
:1028B0009150A1F0FF0FBB1F661F771F881FC2F743
:1028C0000EC0BA0F621F731F841F48F48795779557
:1028D0006795B795F7959E3F08F0B3CF9395880F0E
:1028E00008F09927EE0F979587950895E89409C009
:1028F00097FB3EF490958095709561957F4F8F4F33
:102900009F4F9923A9F0F92F96E9BB279395F69548
:10291000879577956795B795F111F8CFFAF4BB0FC6
:1029200011F460FF1BC06F5F7F4F8F4F9F4F16C02A
:10293000882311F096E911C0772321F09EE8872FB4
:10294000762F05C0662371F096E8862F70E060E070
:102950002AF09A95660F771F881FDAF7880F9695E9
:10296000879597F9089597F99F6780E870E060E090
:1029700008959FEF80EC089500240A941616170618
:1029800018060906089500240A9412161306140660
:1029900005060895092E0394000C11F4882352F0C3
:1029A000BB0F40F4BF2B11F460FF04C06F5F7F4F7B
:1029B0008F4F9F4F089557FD9058440F551F59F062
:1029C0005F3F71F04795880F97FB991F61F09F3F1C
:1029D00079F087950895121613061406551FF2CF45
:1029E0004695F1DF08C0161617061806991FF1CF95
:1029F00086957105610508940895E894BB276627BC
:102A00007727CB0197F908950BD0C4CFB5DF28F015
:102A1000BADF18F0952309F0A6CFABCF1124EECF83
:102A2000CADFA0F3959FD1F3950F50E0551F629F29
:102A3000F001729FBB27F00DB11D639FAA27F00D17
:102A4000B11DAA1F649F6627B00DA11D661F829F3E
:102A50002227B00DA11D621F739FB00DA11D621F23
:102A6000839FA00D611D221F749F3327A00D611D40
:102A7000231F849F600D211D822F762F6A2F112422
:102A80009F5750408AF0E1F088234AF0EE0FFF1F75
:102A9000BB1F661F771F881F91505040A9F79E3FAC
:102AA000510570F060CFAACF5F3FECF3983EDCF3A6
:102AB000869577956795B795F795E7959F5FC1F7E9
:102AC000FE2B880F911D9695879597F90895AA1B5F
:102AD000BB1B51E107C0AA1FBB1FA617B70710F009
:102AE000A61BB70B881F991F5A95A9F7809590953B
:102AF000BC01CD01089597FB072E16F4009407D072
:102B000077FD09D00E94671507FC05D03EF490952B
:102B100081959F4F0895709561957F4F0895A1E22B
:102B20001A2EAA1BBB1BFD010DC0AA1FBB1FEE1F47
:102B3000FF1FA217B307E407F50720F0A21BB30B92
:102B4000E40BF50B661F771F881F991F1A9469F70E
:102B500060957095809590959B01AC01BD01CF016A
:102B60000895283008F027E03327DA01990F311D46
:102B700087FD916000966105710539F432602E5F22
:102B80003D9330E32A95E1F708959F3F30F0803878
:102B90007105610509F03C5F3C5F3D93913008F0A1
:102BA0008068911DDF93CF931F930F93FF92EF9255
:102BB000192F987F9695E92F96959695E90FFF27FF
:102BC000E950FF4F99273327EE24FF24A701E7019F
:102BD00005900894079428F4360FE71EF81E491F45
:102BE000511D660F771F881F991F0694A1F7059046
:102BF000079428F4E70EF81E491F561FC11D770FD2
:102C0000881F991F661F0694A1F70590079428F462
:102C1000F80E491F561FC71FD11D880F991F661F29
:102C2000771F0694A1F70590079420F4490F561FCB
:102C3000C71FD81F990F661F771F881F0694A9F713
:102C400084911095177041F0D695C7955795479583
:102C5000F794E7941A95C1F7EDE9F0E068941590C0
:102C6000159135916591959105907FE27395E118E5
:102C7000F10A430B560BC90BD009C0F7E10CF11E4A
:102C8000431F561FC91FD01D7EF4703311F48A955F
:102C9000E6CFE894015030F0080F0AF4002702173D
:102CA00008F4202F2395022F7A3328F079E37D93BF
:102CB0002A95E9F710C07D932A9589F60694979591
:102CC0006795379517951794E118F10A430B560B42
:102CD000C90BD00998F023957E9173957A3308F04B
:102CE00070E37C932013B8F77E9170617D9330F090
:102CF000839571E37D9370E32A95E1F71124EF90BA
:102D0000FF900F911F91CF91DF91992787FD9095AB
:102D10000895FC010590615070400110D8F780952E
:102D200090958E0F9F1F0895FB01DC0101900D927D
:102D30000020E1F70895FC016150704001900110FE
:102D4000D8F7809590958E0F9F1F08950F931F932E
:102D5000CF93DF93182F092FEB018B8181FD03C0E7
:102D60008FEF9FEF20C082FF10C04E815F812C81CA
:102D70003D81421753077CF4E881F9819F012F5F61
:102D80003F4F39832883108306C0E885F985812F5A
:102D90000995892B29F72E813F812F5F3F4F3F8374
:102DA0002E83812F902FDF91CF911F910F91089546
:102DB0000F931F93CF93DF93CDB7DEB72E970FB648
:102DC000F894DEBF0FBECDBF0D891E8986E08C83CF
:102DD0001A8309838FEF9FE79E838D83AE01475E41
:102DE0005F4F6F89788DCE0101960E946D10EF8143
:102DF000F885E00FF11F10822E960FB6F894DEBF13
:102E00000FBECDBFDF91CF911F910F910895FA01B1
:102E1000AA27283051F1203181F1E8946F936E7F19
:102E20006E5F7F4F8F4F9F4FAF4FB1E03ED0B4E00A
:102E30003CD0670F781F891F9A1FA11D680F791F4B
:102E40008A1F911DA11D6A0F711D811D911DA11D5C
:102E500020D009F468943F912AE0269F112430196C
:102E6000305D3193DEF6CF010895462F4770405D07
:102E70004193B3E00FD0C9F7F6CF462F4F70405DB6
:102E80004A3318F0495D31FD4052419302D0A9F711
:102E9000EACFB4E0A6959795879577956795BA950B
:102EA000C9F700976105710508959B01AC010A2ED1
:102EB00006945795479537952795BA95C9F7620FA8
:0E2EC000731F841F951FA01D0895F894FFCF67
:102ECE000300000000000400005F00000E00070079
:102EDE0007001F147F147F141F242A7F2A121F231A
:102EEE00130864621F364955225006000503000080
:102EFE000E001C2241000E0041221C001F14083E31
:102F0E0008141F08083E08080600A06000000F08FD
:102F1E00080808080600606000000E00601C030030
:102F2E001F3E5149453E0E00427F40001F426151F7
:102F3E0049461D2141454B311F1814127F101D2784
:102F4E0045454539173C4A4949301E01710905036B
:102F5E001D36494949361D064949291E0600363691
:102F6E0000000600AC6C00000F08142241000F1484
:102F7E00141414141E00412214081F0201510906D4
:102F8E001F324979413E1F7C1211127C177F49492D
:102F9E004936173E414141221F7F4141221C177F76
:102FAE0049494941177F09090901173E4149497AA3
:102FBE00177F0808087F0E00417F41001F20404107
:102FCE003F011F7F08142241177F404040401F7F62
:102FDE00020C027F1F7F0408107F173E4141413EC5
:102FEE00177F09090906173E414141BE1D7F091988
:102FFE0029461746494949311F01017F0101173FF3
:10300E004040403F1F1F2040201F1F3F4038403F81
:10301E001F63140814631F07087008071F615149C6
:10302E0045430E007F4141000E00031C60000E0060
:10303E0041417F000E04020102041F404040404007
:10304E000C0000030400172054545478177F484492
:10305E0044381738444444201D384444487F1738B8
:10306E005454541817087E0901021718A4A4A47802
:10307E00177F080404780E00447D40000D408084C4
:10308E007D000F7F102844000E00417F40001F7C02
:10309E0004780478177C08040478173844444438BC
:1030AE0017FC242424181718242424FC177C080445
:1030BE00040817485454542017043F4440201D3C24
:1030CE004040207C1F1C2040201C1F3C4030403CB8
:1030DE001F4428102844171CA0A0A07C1F44645431
:1030EE004C440E00083641000400007F00000E0024
:1030FE00413608001F02010204021FAA55AA55AA52
:10310E00010F025643433A2025322E3166205600D7
:10311E0020202020202020202020202020202020A1
:10312E00202020202020004D414E55414C204D4F57
:10313E004445004155544F204D4F444500434D44A6
:06314E003A202564000098
:00000001FF
