:100000000C94CC000C94EB000C94EB000C94EB00E3
:100010000C94EB000C94EB000C94EB000C94EB00B4
:100020000C94EB000C94EB000C94EB000C94EB00A4
:100030000C94EB000C94EB000C94EB000C94EB0094
:100040000C94EB000C9491030C94EB000C94EB00DB
:100050000C94EB000C94EB000C94EB000C94EB0074
:100060000C94EB000C94EB000C94EB000C94EB0064
:100070000C94EB000C94EB000C94EB000C94EB0054
:100080000C94EB000C94EB000C94EB003136330035
:10009000322E3131006E616E00696E660000407A6A
:1000A00010F35A00A0724E18090010A5D4E8000001
:1000B000E87648170000E40B54020000CA9A3B009F
:1000C0000000E1F505000080969800000040420F16
:1000D000000000A08601000000102700000000E8DA
:1000E00003000000006400000000000A000000009F
:1000F000000100000000002C76D888DC674F082340
:10010000DFC1DFAE59E1B1B796E5E3E453C63AE6A5
:1001100051997696E8E6C28426EB898C9B62ED4085
:100120007C6FFCEFBC9C9F40F2BAA56FA5F49005D4
:100130005A2AF75C936B6CF9676DC11BFCE0E40D08
:1001400047FEF520E6B500D0ED902E0300943577FC
:10015000050080841E080000204E0A000000C80C24
:10016000333333330F986E12831141EF8D2114898D
:100170003BE65516CFFEE6DB18D1844B381BF77CE7
:100180001D901DA4BBE424203284725E228100C92C
:10019000F124ECA1E53D270011241FBECFEFD0E1F3
:1001A000DEBFCDBF13E0A0E0B1E0E4E2F3E200E0A7
:1001B0000BBF02C007900D92A435B107D9F724E018
:1001C000A4E5B3E001C01D92AE31B207E1F70E9491
:1001D0005B020C9490110C94000078940E94D50B53
:1001E0000E9489030E9404030E9423050C94520B71
:1001F000CF92DF92EF92FF920F931F93CF93DF93F3
:100200001F92CDB7DEB780E00E94E10460E080E09D
:100210000E94620580E493E00E94E4090E94040ABF
:100220008091DD0380935A0310925B031F928F939A
:100230008AE493E09F938F938CE593E09F938F9351
:100240000E9403116AE080E00E9462058CE593E061
:100250000E94E4098EEDC82E83E0D82E0F900F90F7
:100260000F900F900F900F9027E19FE4E92E93E0FD
:10027000F92E0CE513E0F6018181F2E0CF0ED11CDE
:1002800080935A0310925B031F928F93FF92EF9219
:100290001F930F9329830E9403116AE02981822F03
:1002A0000E9462058CE593E00E94E4092981295EA1
:1002B0000F900F900F900F900F900F902337D9F65B
:1002C0000F90DF91CF911F910F91FF90EF90DF90F2
:1002D000CF9008958091DC039091DD0381159947BB
:1002E00080F08091E4039091E5038115994748F0EF
:1002F0000E94040A66EF7FEF86EF9FEF0E94BC0A20
:10030000E9CF8CED95E00E9462030E94A00A209143
:10031000DD0330E08091DF0390E0A901480F591F11
:100320002091E50330E08091E30390E0820F931F7A
:100330008417950738F44AE050E06BE170E085EEF1
:100340009FEF09C04817590740F44AE050E065EEB6
:100350007FEF8BE190E00E94EC0A80ED97E00C9437
:1003600062030F931F93CF93DF930E94040ACCED97
:10037000D3E089812296082F10E01093590300934F
:1003800058030639110534F46EE070E08EE090E019
:100390000E94BC0A23E0C63ED20759F78091E003D1
:1003A0009091E1038115974908F444C00E94A00A86
:1003B00088EC90E00E9462038091DC039091DD0361
:1003C000811529E7920750F02091E4033091E5036D
:1003D0002115394718F00E946A0124C0892F9927F6
:1003E0002091DF0330E0820F931F4091E50350E03E
:1003F0002091E30330E0240F351F2817390738F424
:100400004CE050E064E170E08CEE9FEF09C0821791
:10041000930740F44CE050E06CEE7FEF84E190E015
:100420000E94EC0A84EA96E0DF91CF911F910F9130
:100430000C9462038091DE039091DF03811521EA21
:100440009207A0F0292F26952695269520935603EE
:100450001092570360E073E10E94BB0FCB017093D1
:10046000550360935403622F70E01AC02091E20399
:100470003091E303211541EA3407C0F0C90160E07F
:1004800073E10E94BB0F7093570360935603832F51
:10049000869586958695809354031092550390E037
:1004A000DF91CF911F910F910C94BC0ADF91CF91F6
:1004B0001F910F9108950E94ED000E94F8000E9484
:1004C000B10184E690E00E946203F7CF909165004D
:1004D000282F30E080E0A9014170507020FF81E0BA
:1004E0009E7F982B90936500809165004115510582
:1004F00011F490E001C092E08D7F892B809365001C
:100500008091650021FD02C090E001C098E0877FE6
:10051000892B80936500809165008F7E80936500B4
:100520008FEF8ABB6BBB85E0982F9A95F1F790917E
:100530006500946090936500982F9A95F1F79091DB
:1005400065009B7F909365008A95F1F71BBA1ABAF4
:10055000089590916500282F30E080E0A901417056
:10056000507020FF81E09E7F982B909365008091D2
:1005700065004115510511F490E001C092E08D7FB6
:10058000892B809365008091650021FD02C090E079
:1005900001C098E0877F892B80936500809165007A
:1005A0008061809365001ABA25E0822F8A95F1F761
:1005B0008091650084608093650085E18A95F1F7FC
:1005C00089B3909165009B7F90936500922F9A95D7
:1005D000F1F708951F93CF93DF93909170039923C0
:1005E00071F0182F1170CFEFDFEF812F0E94A90259
:1005F000219787FD02C081E003C02097B1F780E01A
:10060000DF91CF911F9108958FEF809370038091B8
:1006100064008860809364008091640080618093AE
:100620006400809164008460809364008091640021
:100630008160809364008091640082608093640094
:10064000B89A1ABA80916500877F8093650080917F
:1006500065008F7E80936500809165008B7F80931D
:100660006500809165008E7F8093650080916500B4
:100670008D7F80936500C098979B07C0979880EA0C
:100680009FE00197F1F7979A04C080EA9FE00197F5
:10069000F1F7C09A80E00E94EA02882351F081E0DD
:1006A0000E94EA02882311F082E001C081E0809379
:1006B0007003809170038F3F11F41092700380914A
:1006C0007003089520EA3FE004C0F9013197F1F783
:1006D00001970097D1F708951092AD0380938E0390
:1006E000982F9F5F9093900396E99093AE03F894B0
:1006F00003C078940000F894B09BFBCF90EC9DB9B8
:100700008FB996E998279093AC03779A789480E014
:100710000895B898C098BB9AC39A80E00E946C0371
:1007200008951F920F920FB60F920BB60F921124DD
:100730002F933F934F935F936F937F938F939F93E9
:10074000AF93BF93EF93FF939FB12091AE032927FF
:100750002093AE038091AD038823B1F490938C0372
:100760009C3130F010928E0310928C0391E009C0FE
:10077000492F50E02091900330E042175307FCF0DE
:100780009F5F909390031BC0482F50E060918C03B3
:1007900070E0641775072CF040575C4FFA019083A6
:1007A0000EC0415050404617570749F4222339F0F4
:1007B00090918D039F5F90938D0310928C03909185
:1007C0008E03891750F4E82FF0E0EF58FC4F20819A
:1007D0002FB99091AC03922711C0891731F49091F1
:1007E000AC039FB91092AC030BC090919003891792
:1007F00058F49FEF9FB99091AC0390959093AC0300
:100800008F5F8093AD0311C0B898C0981DB8B89899
:10081000C09880918F038F5F80938F03789480912D
:100820008C030E94770B0E946C03FF91EF91BF91A4
:10083000AF919F918F917F916F915F914F913F9178
:100840002F910F900BBE0F900FBE0F901F90189519
:100850008091B20308958091BB0308958093AF0304
:100860000895982F9052903608F080E8805290E0DA
:10087000FC01EE0FFF1FE80FF91FEE0FFF1FE05006
:10088000FF4F90818091B103882309F49FE180E0BC
:1008900020E090FD8F5F2F5F253011F09695F9CF06
:1008A00008951F93CF93DF93EC0110E005C02196CC
:1008B0000E9431048F5F180F88818823C1F7812F30
:1008C000DF91CF911F9108951F93CF93DF93EC0198
:1008D00010E007C02196F90184910E9431048F5FD6
:1008E000180F9E01FE0194919923A1F7812FDF91AA
:1008F000CF911F9108958093B10308958091B10322
:100900000895863130F4683020F46093B00380930A
:10091000BC0308950F931F93DF93CF930F92CDB72E
:10092000DEB7182F6854883018F580E069830E947C
:10093000EA0280E069810E94660280E00E94EA0289
:10094000612F660F660F660F605C80E00E94660292
:1009500003EB13E082E00E94EA0282E0F801619179
:100960008F010E946602F3E00B3B1F0799F723C03B
:10097000185081E069830E94EA0281E069810E9447
:10098000660281E00E94EA02612F660F660F660F21
:10099000605C81E00E94660203EB13E083E00E944A
:1009A000EA0283E0F80161918F010E946602F3E0A0
:1009B0000B3B1F0799F70F90CF91DF911F910F917C
:1009C0000895FF920F931F93F82E18EB80E00E947A
:1009D000EA0281E00E94EA0280E0612F0E94660242
:1009E00081E0612F0E94660200E082E00E94EA023C
:1009F00083E00E94EA0282E06F2D0E94660283E09B
:100A00006F2D0E9466020F5F003479F71F5F103C64
:100A1000E9F680E00E94EA0281E00E94EA0280E0BA
:100A200068EB0E94660281E068EB0E9466021F91FB
:100A30000F91FF90089580E00E94E1041092B003AE
:100A40001092BC03089580E00E94EA0280E06FE308
:100A50000E94660280E00E94EA0280E060EC0E9450
:100A6000660280E00E94EA0280E060E40E94660282
:100A700080E00E94EA0280E068EB0E94660281E06A
:100A80000E94EA0281E06FE30E94660281E00E9418
:100A9000EA0281E060EC0E94660281E00E94EA02C4
:100AA00081E060E40E94660281E00E94EA0281E047
:100AB00068EB0E94660280E00E94E10481E080937E
:100AC000AF0308950F931F93182F062F8093B2033F
:100AD0006093BB0380E00E94EA0281E00E94EA0288
:100AE000069506950695085480E0602F0E946602E0
:100AF00081E0602F0E94660280E00E94EA0281E0AD
:100B00000E94EA02113438F080E060E40E9466023C
:100B100081E0612F07C0612F605C80E00E94660267
:100B200081E060E40E9466021F910F910895EF92A8
:100B3000FF920F931F93CF93DF9319EB47C00830B9
:100B4000E8F480E00E94EA0280E0612F0E946602E1
:100B500080E00E94EA026F2D605C80E00E946602E5
:100B600082E00E94A902C3EBD3E082E00E94A902C6
:100B7000899383E0CB3BD807C1F71BC081E00E947B
:100B8000EA0281E0612F0E94660281E00E94EA028F
:100B900081E06F2D0E94660283E00E94A902C3EBF0
:100BA000D3E083E00E94A902899383E0CB3BD8077E
:100BB000C1F7802F6E2D0E948A040F5F88E0F80E27
:100BC000003109F0BCCF1F5F103C31F0FF2400E082
:100BD00037E4E32EE10EB3CFE3EBF3E0119283E0D1
:100BE000EB3BF807D9F710E0812F67E00E948A04F9
:100BF0001F5F1031C9F78091B003882319F081502D
:100C00008093B003DF91CF911F910F91FF90EF90F0
:100C10000895EF92FF920F931F93E82E162F809165
:100C2000B20387FD39C000E0803408F001E0802F76
:100C30000E94EA0242E0F42EF00E8F2D0E94A902DB
:100C40008F2D0E94A9029091AF0392FF02C0E09401
:100C50009B7FE122992319F41E2D182B08C0913097
:100C600021F4109518231E2902C01E2D1827802F4D
:100C70000E94EA026091B2036064802F0E946602C3
:100C8000802F0E94EA028F2D612F0E9466028091C0
:100C9000B2038F5F8093B2031F910F91FF90EF908B
:100CA00008959091BB03977061E070E002C0660FF9
:100CB000771F9A95E2F7882311F0862F02C0862FBE
:100CC00060E00E94090608952F923F924F925F9232
:100CD0006F927F928F929F92AF92BF92CF92DF924C
:100CE000EF92FF920F931F93DF93CF9300D000D02A
:100CF00000D0CDB7DEB7082F162F5A8349836090F6
:100D0000B203E090BB038E2D87702FEF30E0F22E00
:100D100001C0FF0C8A95EAF7802F90E0019768E008
:100D200070E00E94CF0F6F5FA62EBB24C50173E059
:100D3000880F991F7A95E1F744245524481A590AD7
:100D4000CC2468E0762E5FEF852E912CBC82AB829E
:100D500071C08E2D8770D72CD81A1D1548F48D2D93
:100D6000811B940102C0359527958A95E2F7F222FE
:100D70008D2D8C0D90E08A9D10018B9D300C9A9DDD
:100D8000300C112480E090E09E838D8343C04D8120
:100D90005E81477050704115510571F5E695E695F5
:100DA000E695C1018E0F911DFC01A981BA81EA0F60
:100DB000FB1FE40DF51D20E030E06D817E819491F4
:100DC000A3EBB3E08C9186958C9390FF02C0806872
:100DD0008C93119683E0AB3BB80711F09695F2CF58
:100DE0002F5F3F4F2830310529F0AB81BC81EA0FDE
:100DF000FB1FE5CF7E836D834D545C4FFA018081EC
:100E00008F216F2D0E9409062D813E812F5F3F4F5C
:100E10003E832D83ED81E01708F4B9CF1D1508F44A
:100E2000D12E1D19ED0CCD0C862D6E2D0E94620564
:100E3000FF24FA94112309F08CCF26960FB6F8946C
:100E4000DEBF0FBECDBFCF91DF911F910F91FF90FD
:100E5000EF90DF90CF90BF90AF909F908F907F905A
:100E60006F905F904F903F902F9008952F923F92F8
:100E70004F925F926F927F928F929F92AF92BF92AA
:100E8000CF92DF92EF92FF920F931F93DF93CF9356
:100E900000D000D000D0CDB7DEB7082F162F5A8370
:100EA00049836090B203E090BB038E2D87702FEFD3
:100EB00030E0F22E01C0FF0C8A95EAF7802F90E017
:100EC000019768E070E00E94CF0F6F5FA62EBB24F1
:100ED000C501A3E0880F991FAA95E1F74424552482
:100EE000481A590ACC24F8E07F2EEFEF8E2E912C71
:100EF000BC82AB8271C08E2D8770D72CD81A1D157D
:100F000048F48D2D811B940102C0359527958A9553
:100F1000E2F7F2228D2D8C0D90E08A9D10018B9DC1
:100F2000300C9A9D300C112480E090E09E838D83DC
:100F300043C04D815E81477050704115510571F578
:100F4000E695E695E695C1018E0F911DFC01A981FC
:100F5000BA81EA0FFB1FE40DF51D20E030E06D8142
:100F60007E819081A3EBB3E08C9186958C9390FF6A
:100F700002C080688C93119683E0AB3BB80711F0F8
:100F80009695F2CF2F5F3F4F2830310529F0AB8186
:100F9000BC81EA0FFB1FE5CF7E836D834D545C4F10
:100FA000FA0180818F216F2D0E9409062D813E81DB
:100FB0002F5F3F4F3E832D83ED81E01708F4B9CFBB
:100FC0001D1508F4D12E1D19ED0CCD0C862D6E2D9E
:100FD0000E946205FF24FA94112309F08CCF269613
:100FE0000FB6F894DEBF0FBECDBFCF91DF911F913A
:100FF0000F91FF90EF90DF90CF90BF90AF909F90B8
:101000008F907F906F905F904F903F902F900895BA
:10101000AF92BF92CF92DF92EF92FF920F931F9306
:10102000CF93DF93A82E162FB090B203F090BB039E
:101030008F2D87702FEF30E0022F01C0000F8A95AF
:10104000EAF7B8E0CB2ECFEFD0E022C08F2D87702B
:10105000EC2CE81A1E1548F48E2D811B9E0102C04F
:10106000359527958A95E2F70223DA2C05C0802F63
:10107000602F0E940906DA94DD20C9F71E1508F4D6
:10108000E12E1E19FE0C8B2D6F2D0E9462050FEFB5
:101090001123E1F6DF91CF911F910F91FF90EF9017
:1010A000DF90CF90BF90AF900895682F81E00E94AD
:1010B000080808950F931F93182F8091BB03877022
:1010C00021E030E0022F01C0000F8A95EAF705C049
:1010D000802F602F0E94090611501123C9F71F911C
:1010E0000F9108959F92AF92BF92CF92DF92EF92AD
:1010F000FF920F931F93082F162FF090B203E090EA
:10110000BB038F1561F4E61618F4862F8E1904C000
:101110000E9462058E2D811B0E9455085EC0DE2C48
:101120006E1559F4F81610F48F1904C00E94620568
:101130008F2D801B0E945A0850C08F1528F4AF2CA9
:10114000A81A99249A9409C0F81618F09924AA2488
:1011500004C0A82EAF18992493941E1528F4BE2C11
:10116000B11ACC24CA9409C0E11618F0CC24BB24CF
:1011700004C0B12EBE18CC24C39481E00E94510655
:10118000BA14B0F4EA2CE694E194F90CEB0C1E14BA
:1011900014F4EA18DC0C8F2D6D2D0E94620581E09D
:1011A0000E945106F90C8F2D8919801779F715C007
:1011B000DB2CD694D194EC0CDA0C1D1414F4DB184F
:1011C000F90C8F2D6E2D0E94620581E00E94510660
:1011D000EC0C8E2D8C19811779F7802F612F0E94CE
:1011E00062051F910F91FF90EF90DF90CF90BF901D
:1011F000AF909F9008958F929F92AF92BF92CF929F
:10120000DF92EF92FF920F931F93CF93DF93062FFE
:10121000982F9052903608F080E8805296E0899F8F
:10122000E0011124C050DF4F18818091B103882361
:1012300009F41FE1E02EFF24E7FCF0948FEF90E02B
:101240006C010E2C02C0CC0CDD1C0A94E2F7AA241F
:10125000BB24AE18BF080A2C02C0959587950A9446
:10126000E2F7D82E85E0882E912C8C0E9D1E10FF63
:1012700016C0898107FD09C090E00E2C02C0880FBE
:10128000991F0A94E2F76C2D08C090E00A2C02C066
:10129000959587950A94E2F76D2D0E94090621968F
:1012A000C815D90511F01695E2CF07FD03C080E0FF
:1012B0006C2D02C080E06D2D0E940906DF91CF9158
:1012C0001F910F91FF90EF90DF90CF90BF90AF9064
:1012D0009F908F900895FF920F931F93082FF09087
:1012E000B2031091BB031770612F0E94FB081123FA
:1012F00091F06091BB03685F8F2D0E946205612FA2
:101300006850802F0E94FB086091BB036850809159
:10131000B2030E9462051F910F91FF9008951F93E1
:10132000CF93DF93EC011092B10336C01A3069F409
:101330001092BC038091B0038F5F8093B00388301C
:1013400059F581E00E94970527C01D3029F1809151
:10135000BC03853160F01092BC038091B0038F5FB5
:101360008093B003883019F481E00E949705909132
:10137000BC03892F880F890F6091B003660F660F39
:10138000660F880F0E946205812F0E946B09809171
:10139000BC038F5F8093BC031991112339F6DF9151
:1013A000CF911F910895CF93DF93EC0105C0219653
:1013B000F90184910E946B099E01FE019491992389
:1013C000B1F7DF91CF910895CF93DF93EC0103C084
:1013D00021960E946B0988818823D1F7DF91CF91F4
:1013E000089590E0282F30E0F90183E0EE0FFF1F11
:1013F0008A95E1F7E21BF30BED53FC4F80818F3FA1
:1014000009F091E0892F0895F8949091FB0380E012
:10141000EBEFF3E02291820F911D9093DD03809317
:10142000DC03938180E02281820F911D9093DF0382
:101430008093DE03958180E02481820F911D90933B
:10144000E1038093E003978180E02681820F911D64
:101450009093E3038093E203918580E02085820FDF
:10146000911D9093E5038093E4037894F894209180
:1014700004048091BF039091C003820F911D3091AD
:10148000050420E0820F931F9093D9038093D80323
:10149000209106048091BD039091BE03820F911D9F
:1014A0003091070420E0820F931F9093F103809303
:1014B000F0039091090480E020910804820F911DAF
:1014C000909319048093180490910B0480E020916C
:1014D0000A04820F911D9093EF038093EE03909185
:1014E0000D0480E020910C04820F911D9093C203A3
:1014F0008093C10390910F0480E020910E04820F2D
:10150000911D9093F9038093F8037894F894909147
:10151000120480E020911104820F911D9093DB034F
:101520008093DA039091140480E020911304820FD9
:10153000911D9093160480931504789481E008958A
:10154000F89481E08093C30378940895F8948AE036
:101550008093C303789481E00895F89425E0209364
:10156000C3038093C4039093C5036093C603709331
:10157000C703789481E00895F89422E02093C30390
:101580008093C4039093C5036093C6037093C7030D
:10159000789481E008952091BF033091C003FC014D
:1015A000E21BF30B9F018091BD039091BE03681B6A
:1015B000790BF89483E08093C303E093C4033093E2
:1015C000C5036093C6037093C7034093C803509349
:1015D000C903789481E00895F89424E02093C3032C
:1015E0008093C4039093C5036093C6037093C703AD
:1015F0004093C8035093C903789481E00895789488
:101600009091D10320E137E22150304011F09F3F0B
:10161000D9F7F89496E09093D1038093D203609326
:10162000D3034093D403789481E0089581E0089532
:10163000F8943091070420E040910604F901E40F8A
:10164000F11DAF013091050420E0E09104042E0F5C
:10165000311DFC01E21BF30BF093C003E093BF03C9
:101660009B01241B350B3093BE032093BD03909345
:10167000D9038093D8037093F1036093F0037894B7
:1016800081E0089578942091CA0380E197E2019760
:1016900011F02F3FE1F7F89488E08093CA03789423
:1016A00081E0089578942091CA0380E197E2019740
:1016B00011F02F3FE1F7F89487E08093CA03789404
:1016C00081E0089578944091CA0320E137E22150E7
:1016D000304011F04F3FD9F7F89429E02093CA0326
:1016E0008093CB039093CC03789481E008959091FC
:1016F00017049F5F909317048B3141F4AAEFB3E076
:10170000E1E9F3E001900D928150E1F78FEF8093D2
:101710007F0380937803809371038091C3038F3F8D
:1017200011F480E00DC0A1E7B3E0E3ECF3E087E063
:1017300001900D928150E1F78FEF8093C30387E012
:101740009091CA039F3F79F0E82FF0E0EF58FC4FEB
:10175000AAECB3E097E00D9001929150E1F79FEF72
:101760009093CA03895F9091D1039F3F81F0E82F46
:10177000F0E0EF58FC4FA1EDB3E087E00D9001924F
:101780008150E1F78FEF8093D10385E1089588239D
:1017900011F487E0089585E1089587E00E94F40B35
:1017A00090931B0480931A0408958F9A97988AE067
:1017B00090E00E946203979A84E690E00E946203A0
:1017C0000895E1E6F0E0908121E030E002C0220FD0
:1017D000331F8A95E2F7209592239083E2E6F0E0AA
:1017E000808182238083089590E497B997B18770B0
:1017F000892B87B987EC86B901C000003699FDCFE7
:1018000084B195B1392F20E0280F311D80911C043F
:1018100090911D04820F931F90931D0480931C04CC
:10182000C901089580911C0490911D0408952F9280
:101830003F924F925F926F927F928F929F92AF9260
:10184000BF92CF92DF92EF92FF920F931F93CF93AD
:10185000DF93CDB7DEB763970FB6F894DEBF0FBE48
:10186000CDBF7C011B016A01FC01178216828381B6
:1018700081FF66C3BE016F5F7F4F4B01F70193810C
:10188000F10193FD859193FF81911F01882309F454
:1018900053C3853239F493FD859193FF81911F01E4
:1018A000853239F4B70190E00E94D11056016501EC
:1018B000E5CF10E0512C20E02032A0F48B3269F00B
:1018C00030F4803259F0833269F420612CC08D32BB
:1018D00039F0803339F4216026C02260246023C0AF
:1018E000286021C027FD27C030ED380F3A3078F44A
:1018F00026FF06C0FAE01F9F300D1124132F13C0DE
:101900006AE0569E300D1124532E20620CC08E3298
:1019100021F426FD11C3206406C08C3611F4206822
:1019200002C0883641F4F10193FD859193FF8191C6
:101930001F018111C1CF9BEB980F933018F42061E8
:10194000805E06C09BE9980F933008F0AAC12F7EF5
:1019500026FF16E02F73722E853621F4F22FF064E5
:101960007F2E08C0863621F4622F6068762E02C072
:101970001111115077FE07C01C3348F444244394DE
:10198000410E27E00BC0183030F4212F06C027E0AD
:101990004CE3442E03C027E017E0412C560174E0CD
:1019A000A70EB11CF6016081718182819381042DA3
:1019B000A4010E94E30F6C01098100FF02C003FF34
:1019C00006C071FC07C072FC08C0612C08C03DE273
:1019D000632E05C02BE2622E02C090E2692E802F9A
:1019E0008C7099F1662011F084E001C083E08515C8
:1019F00010F0512C0BC0581A73FC08C0B70180E2DC
:101A000090E00E94D1105A94C9F7F3CF662029F0D4
:101A1000B701862D90E00E94D11003FD03C009E9B3
:101A200010E002C005E910E0F72DF0717F2EF801FB
:101A30008491882309F476C271108052B70190E036
:101A40000E94D1100F5F1F4FF2CF77FE0FC04C0CDA
:101A500004FF04C08A81813309F44A94141474F594
:101A6000F8E0F41578F588E0482E2CC076FC2AC002
:101A7000812F90E08C159D059CF06CEFC6166FEFE2
:101A8000D60674F0772D7068772E0AC0E2E0F0E099
:101A9000EC0FFD1FE10FF11D8081803319F411500F
:101AA0001111F4CF77FE0EC044244394410E812FD0
:101AB00090E0C816D9062CF41C1904C044244394A1
:101AC00001C010E077FE07C01C141D043CF4960111
:101AD0002F5F3F4F05C025E030E002C021E030E03D
:101AE000662011F02F5F3F4F112331F0412F50E05E
:101AF0004F5F5F4F240F351F452D50E024173507EA
:101B000014F4521A01C0512C872D897049F45520C4
:101B100039F0B70180E290E00E94D1105A94F7CFDB
:101B2000662029F0B701862D90E00E94D11073FC49
:101B300009C0552039F0B70180E390E00E94D11030
:101B40005A94F7CF77FE5FC09C2D8D2DD7FE02C033
:101B500090E080E0692E782E40E050E0C6018419C4
:101B600091099D878C87960126193709280D391D03
:101B7000812F90E0EE27FF27E81BF90BFF87EE8708
:101B8000FFEF6F167F0669F4B7018EE290E02B8BB2
:101B90003A8B488B598B0E94D110598948893A89D0
:101BA0002B89C614D70454F06C857D85661577059E
:101BB0002CF4F901E40FF51F818101C080E371E08D
:101BC000671A71084F5F5F4FEE85FF856E167F06BF
:101BD0006CF0B70190E02B8B3A8B488B598B0E94AD
:101BE000D1102B893A8948895989CACF6C147D0450
:101BF00039F49A81963318F4953311F404FF81E394
:101C0000B70190E04BC08A81813309F00F7EB701A4
:101C100090E00E94D110111105C074FE18C085E437
:101C200090E017C0B7018EE290E00E94D11082E0F0
:101C300066246394680EF401E80FF11D8081B701FA
:101C400090E00E94D110115041F3862DF1CF85E62E
:101C500090E0B7010E94D110D7FC05C0C114D10497
:101C600039F404FF05C0D194C194D1088DE201C0BC
:101C70008BE2B70190E00E94D11080E36AE0C616C3
:101C8000D1042CF08F5FFAE0CF1AD108F7CFB7015B
:101C900090E00E94D110B701C601C0960E94D110F9
:101CA00041C1833631F0833779F0833509F058C06C
:101CB00021C0560172E0A70EB11CF6018081898314
:101CC00001E010E0640114C05601F2E0AF0EB11C57
:101CD000F601C080D18026FF03C0612F70E002C0F2
:101CE0006FEF7FEFC6012B8B0E94C6108C012B89F2
:101CF0002F7715C05601F2E0AF0EB11CF601C0807F
:101D0000D18026FF03C0612F70E002C06FEF7FEF2C
:101D1000C6012B8B0E94BB108C012B892068722E70
:101D200023FD1AC0852D90E008171907A8F4B70104
:101D300080E290E00E94D1105A94F4CFF60177FC33
:101D4000859177FE81916F01B70190E00E94D110DB
:101D500051105A94015011090115110579F7E2C08B
:101D6000843611F0893651F5560127FF09C0F4E099
:101D7000AF0EB11CF60160817181828193810AC02E
:101D8000F2E0AF0EB11CF60160817181882777FD0A
:101D90008095982F022F0F7697FF08C09095809519
:101DA000709561957F4F8F4F9F4F00682AE030E01C
:101DB000A4010E943211C82EC8183EC0022F8537D8
:101DC00021F40F7E2AE030E01DC0097F8F3691F0AC
:101DD00018F4883559F0B0C0803719F0883711F001
:101DE000ABC0006104FF09C0046007C024FF08C045
:101DF000066006C028E030E005C020E130E002C007
:101E000020E132E0560107FF09C0F4E0AF0EB11C3B
:101E1000F601608171818281938108C0F2E0AF0E8A
:101E2000B11CF6016081718180E090E0A4010E9404
:101E30003211C82EC8180F7706FF0BC0202F2E7F37
:101E4000C11650F404FF0AC002FD08C0202F2E7EE8
:101E500005C0DC2C202F03C0DC2C01C0D12E24FFB8
:101E60000DC0FE01EC0DF11D8081803311F4297E3F
:101E700009C022FF06C0D394D39404C0822F867871
:101E800009F0D39423FD13C020FF06C01C2DD514E8
:101E900018F4150D1D19D52CD51468F4B70180E27E
:101EA00090E02B8B0E94D110D3942B89F5CFD514C1
:101EB00010F45D1801C0512C24FF12C0B70180E35B
:101EC00090E02B8B0E94D1102B8922FF17C021FF9D
:101ED00003C088E590E002C088E790E0B7010CC03D
:101EE000822F867859F021FD02C080E201C08BE28A
:101EF00027FD8DE2B70190E00E94D110C11638F4A1
:101F0000B70180E390E00E94D1101150F7CFCA943E
:101F1000F401EC0DF11D8081B70190E00E94D11019
:101F2000C110F5CF552009F4C2CCB70180E290E092
:101F30000E94D1105A94F6CFF7018681978102C092
:101F40008FEF9FEF63960FB6F894DEBF0FBECDBF45
:101F5000DF91CF911F910F91FF90EF90DF90CF9085
:101F6000BF90AF909F908F907F906F905F904F90B9
:101F70003F902F900895AA1BBB1B51E107C0AA1FD9
:101F8000BB1FA617B70710F0A61BB70B881F991F1A
:101F90005A95A9F780959095BC01CD01089597FBBE
:101FA000072E16F4009407D077FD09D00E94BB0FCE
:101FB00007FC05D03EF4909581959F4F089570954C
:101FC00061957F4F0895283008F027E03327DA0124
:101FD000990F311D87FD916000966105710539F4F7
:101FE00032602E5F3D9330E32A95E1F708959F3FDD
:101FF00030F080387105610509F03C5F3C5F3D932E
:10200000913008F08068911DDF93CF931F930F9359
:10201000FF92EF92192F987F9695E92F96959695B6
:10202000E90FFF27E950FF4F99273327EE24FF24BC
:10203000A701E70105900894079428F4360FE71EDE
:10204000F81E491F511D660F771F881F991F0694A0
:10205000A1F70590079428F4E70EF81E491F561FB4
:10206000C11D770F881F991F661F0694A1F7059061
:10207000079428F4F80E491F561FC71FD11D880F5B
:10208000991F661F771F0694A1F70590079420F407
:10209000490F561FC71FD81F990F661F771F881F2C
:1020A0000694A9F784911095177041F0D695C795BD
:1020B00057954795F794E7941A95C1F7EDE9F0E045
:1020C00068941590159135916591959105907FE2F1
:1020D0007395E118F10A430B560BC90BD009C0F7F1
:1020E000E10CF11E431F561FC91FD01D7EF4703333
:1020F00011F48A95E6CFE894015030F0080F0AF405
:102100000027021708F4202F2395022F7A3328F096
:1021100079E37D932A95E9F710C07D932A9589F696
:10212000069497956795379517951794E118F10AD6
:10213000430B560BC90BD00998F023957E917395EC
:102140007A3308F070E37C932013B8F77E917061C6
:102150007D9330F0839571E37D9370E32A95E1F7E9
:102160001124EF90FF900F911F91CF91DF9199274C
:1021700087FD90950895FC01059061507040011015
:10218000D8F7809590958E0F9F1F0895FC016150A0
:10219000704001900110D8F7809590958E0F9F1F89
:1021A00008950F931F93CF93DF93182F092FEB01FF
:1021B0008B8181FD03C08FEF9FEF20C082FF10C095
:1021C0004E815F812C813D81421753077CF4E88169
:1021D000F9819F012F5F3F4F39832883108306C009
:1021E000E885F985812F0995892B29F72E813F8173
:1021F0002F5F3F4F3F832E83812F902FDF91CF9111
:102200001F910F9108950F931F93CF93DF93CDB735
:10221000DEB72E970FB6F894DEBF0FBECDBF0D8987
:102220001E8986E08C831A8309838FEF9FE79E8344
:102230008D83AE01475E5F4F6F89788DCE01019629
:102240000E94170CEF81F885E00FF11F10822E9687
:102250000FB6F894DEBF0FBECDBFDF91CF911F91B7
:102260000F910895FA01AA27283051F1203181F108
:10227000E8946F936E7F6E5F7F4F8F4F9F4FAF4F8E
:10228000B1E03ED0B4E03CD0670F781F891F9A1FA1
:10229000A11D680F791F8A1F911DA11D6A0F711D55
:1022A000811D911DA11D20D009F468943F912AE061
:1022B000269F11243019305D3193DEF6CF01089549
:1022C000462F4770405D4193B3E00FD0C9F7F6CF7A
:1022D000462F4F70405D4A3318F0495D31FD405242
:1022E000419302D0A9F7EACFB4E0A69597958795D8
:1022F00077956795BA95C9F70097610571050895B7
:102300009B01AC010A2E0694579547953795279562
:10231000BA95C9F7620F731F841F951FA01D0895FA
:04232000F894FFCF5F
:102324000300000000000400005F00000E0007002E
:1023340007001F147F147F141F242A7F2A121F23CF
:10234400130864621F364955225006000503000035
:102354000E001C2241000E0041221C001F14083EE6
:1023640008141F08083E08080600A06000000F08B3
:10237400080808080600606000000E00601C0300E6
:102384001F3E5149453E0E00427F40001F426151AD
:1023940049461D2141454B311F1814127F101D273A
:1023A40045454539173C4A4949301E017109050321
:1023B4001D36494949361D064949291E0600363647
:1023C40000000600AC6C00000F08142241000F143A
:1023D400141414141E00412214081F02015109068A
:1023E4001F324979413E1F7C1211127C177F4949E3
:1023F4004936173E414141221F7F4141221C177F2C
:1024040049494941177F09090901173E4149497A58
:10241400177F0808087F0E00417F41001F204041BC
:102424003F011F7F08142241177F404040401F7F17
:10243400020C027F1F7F0408107F173E4141413E7A
:10244400177F09090906173E414141BE1D7F09193D
:1024540029461746494949311F01017F0101173FA8
:102464004040403F1F1F2040201F1F3F4038403F37
:102474001F63140814631F07087008071F6151497C
:1024840045430E007F4141000E00031C60000E0016
:1024940041417F000E04020102041F4040404040BD
:1024A4000C0000030400172054545478177F484448
:1024B40044381738444444201D384444487F17386E
:1024C4005454541817087E0901021718A4A4A478B8
:1024D400177F080404780E00447D40000D4080847A
:1024E4007D000F7F102844000E00417F40001F7CB8
:1024F40004780478177C0804047817384444443872
:1025040017FC242424181718242424FC177C0804FA
:10251400040817485454542017043F4440201D3CD9
:102524004040207C1F1C2040201C1F3C4030403C6D
:102534001F4428102844171CA0A0A07C1F446454E6
:102544004C440E00083641000400007F00000E00D9
:10255400413608001F02010204021FAA55AA55AA07
:1025640044697374616E7A656E00253369200025B1
:0425740033690000C7
:00000001FF
