:100000000C94CC000C94EB000C94EB000C94EB00E3
:100010000C94EB000C94EB000C94EB000C94EB00B4
:100020000C94EB000C94EB000C94EB000C94EB00A4
:100030000C94EB000C94EB000C94D1060C94EB00A8
:100040000C94EB000C9484070C942A050C945B052B
:100050000C94EB000C94EB000C94EB000C94EB0074
:100060000C94EB000C94EB000C94EB000C94EB0064
:100070000C94EB000C94EB000C94EB000C94EB0054
:100080000C94EB000C94EB000C94EB003136330035
:10009000322E3131006E616E00696E660000407A6A
:1000A00010F35A00A0724E18090010A5D4E8000001
:1000B000E87648170000E40B54020000CA9A3B009F
:1000C0000000E1F505000080969800000040420F16
:1000D000000000A08601000000102700000000E8DA
:1000E00003000000006400000000000A000000009F
:1000F000000100000000002C76D888DC674F082340
:10010000DFC1DFAE59E1B1B796E5E3E453C63AE6A5
:1001100051997696E8E6C28426EB898C9B62ED4085
:100120007C6FFCEFBC9C9F40F2BAA56FA5F49005D4
:100130005A2AF75C936B6CF9676DC11BFCE0E40D08
:1001400047FEF520E6B500D0ED902E0300943577FC
:10015000050080841E080000204E0A000000C80C24
:10016000333333330F986E12831141EF8D2114898D
:100170003BE65516CFFEE6DB18D1844B381BF77CE7
:100180001D901DA4BBE424203284725E228100C92C
:10019000F124ECA1E53D270011241FBECFEFD0E1F3
:1001A000DEBFCDBF13E0A0E0B1E0EAEBFEE200E08D
:1001B0000BBF02C007900D92AC37B107D9F724E00E
:1001C000ACE7B3E001C01D92A33DB207E1F70E9486
:1001D00017040C945B170C9400000F931F93CF939C
:1001E000DF93CDB7DEB764970FB6F894DEBF0FBECE
:1001F000CDBF19821A821B821C82FE01359680E1D6
:10020000DF011D928A95E9F70E94C00F6091CF042B
:100210007091D00480E090E00E946C1429EB3CEFD8
:1002200047E85CE30E94FA142CEE31E548E95FE30D
:100230000E9407149F938F937F936F9382E493E0C0
:100240009F938F938E010F5F1F4F1F930F930E94F9
:10025000CE1660E080E00E945509C8010E94D70DCB
:100260000FB6F894DEBF0FBECDBF64960FB6F894FC
:10027000DEBF0FBECDBFDF91CF911F910F910895CB
:100280000E9441060C941609CF92DF92EF92FF92E2
:100290000F931F93CF93DF938AE0D82EC0E0D0E076
:1002A00005E010E094E1C92E80917C0390917D03DC
:1002B000C817D9075CF57E018FEFE81AF80A6D2D93
:1002C00080E00E9455098FE493E00E94D70D809151
:1002D0007E0390917F038C0F9D1FB8010E947115C2
:1002E000EC016D2D80E00E945509CC9EC001CD9E91
:1002F000900D112480589C4F0E94D70D8AE090E009
:100300000E9455078AE0D80EE701CECFDF91CF914A
:100310001F910F91FF90EF90DF90CF900895EF9293
:10032000FF920F931F93CF93DF939C01E0907E0386
:10033000F0907F03C0917C03D0917D03C7018C0FA7
:100340009D1F05E010E0B8010E94711564E1689FEF
:10035000A001699F500D1124B901CA0180589C4F1A
:100360000E948A16C530D10534F42196D0937D03BE
:10037000C0937C0308C0C701B8010E947115909317
:100380007F0380937E03DF91CF911F910F91FF90A8
:10039000EF900C94440180E00E94D40860E080E07B
:1003A0000C9455098091990490919A048115914576
:1003B00040F081E020919104309192042115314563
:1003C00008F480E008954AE050E06BE170E085EECB
:1003D0009FEF0C94DF0E4AE050E06DE070E083EF99
:1003E0009FEF0C94DF0E4AE050E065EE7FEF8BE16B
:1003F00090E00C94DF0E83E30E9493050E94D201EB
:10040000882359F00E94A7040E94F70D66EF7FEF42
:1004100086EF9FEF0E94AF0EF1CF8CED95E00E942A
:1004200055070E94B2040E94930E20919A0430E076
:100430008091980490E0A901480F591F20919204DF
:1004400030E08091940490E0820F931F8417950709
:1004500040F486E30E9493050E94F3010E94C304C6
:100460000AC04817590738F487E30E9493050E9491
:10047000E3010E94C90480ED97E00C9455074AE01F
:1004800050E063EF7FEF8DE090E00C94DF0ECF93B0
:10049000DF930E94F70DC1E9D4E089812296809311
:1004A000E603863940F46EE070E08EE090E00E9452
:1004B000AF0E0E94BD0424E0CB39D20771F78091C2
:1004C00095049091960481159749C8F10E94930E66
:1004D00088EC90E00E9455070E94D201882319F011
:1004E0000E94FB0126C020919A0430E0809198047C
:1004F00090E0A901480F591F2091920430E08091AB
:10050000940490E0820F931F8417950740F484E3CE
:100510000E9493050E943F020E94C3040AC048172C
:10052000590738F485E30E9493050E94EB010E946D
:10053000C9048CED95E0DF91CF910C945507209183
:1005400097043091980421158DE83807C8F0C90147
:1005500060E078E10E945D15FB016093E503C9014D
:1005600060E07AE00E945D15CB016093E403BF0177
:10057000615071090E94AF0EDF91CF910C94D504A8
:10058000209193043091940421158DE83807D0F020
:10059000C90160E07AE00E945D15462FE72F609365
:1005A000E503C90160E078E10E945D15CB0160932D
:1005B000E403642F7E2F01970E94AF0EDF91CF914D
:1005C0000C94CF04DF91CF9108954AE050E065E3A9
:1005D00070E08BEC9FEF0C94DF0E90E0BC010E946A
:1005E000AF0E0E94F70D81E02091950430919604A2
:1005F0002115374908F080E008950C94930E789403
:100600000E94C80F0E947C070E9441060E941609A2
:100610000C94450F80919104909192048115994713
:1006200080F08091990490919A048115994748F03F
:100630000E94F70D66EF7FEF86EF9FEF0E94AF0EEF
:10064000E9CF8CED95E00E9455070E94930E209112
:10065000920430E08091940490E0A901480F591F62
:1006600020919A0430E08091980490E0820F931FCB
:100670008417950738F44AE050E06BE170E085EEAE
:100680009FEF09C04817590740F44AE050E065EE73
:100690007FEF8BE190E00E94DF0E80ED97E00C94FD
:1006A00055070F931F93CF93DF930E94F70DC1E976
:1006B000D4E089812296082F10E01093EC03009378
:1006C000EB030639110534F46EE070E08EE090E043
:1006D0000E94AF0E24E0CB39D20759F780919504E0
:1006E000909196048115974908F441C00E94930E99
:1006F00088EC90E00E9455078091910490919204BB
:10070000811529E7920750F02091990430919A04BD
:100710002115394718F00E94FB0124C0892F992721
:100720002091940430E0820F931F40919A0450E08E
:100730002091980430E0240F351F2817390738F42A
:100740004CE050E064E170E08CEE9FEF09C082174E
:10075000930740F44CE050E06CEE7FEF84E190E0D2
:100760000E94DF0E84EA96E00E94550738C080910F
:10077000930490919404811521EA9207A0F0292F07
:100780002695269526952093E9031092EA0360E0CA
:1007900073E10E945D15CB017093E8036093E7035A
:1007A000622F70E01AC020919704309198042115AF
:1007B00041EA3407A0F0C90160E073E10E945D15D1
:1007C0007093EA036093E903832F86958695869557
:1007D0008093E7031092E80390E00E94AF0EDF9150
:1007E000CF911F910F91089578940E94C80F0E9495
:1007F0007C070E94D40F0E949F060E9441060E941F
:1008000016090C94450F0E948404892B71F0809185
:100810004003813051F4109240031092020486E6A6
:1008200093E00E948F010C94FD020C94470281E03A
:10083000809302040E94F4030E948D050E944001EF
:100840000E94ED0080E197E20E945507809102042A
:100850008130A9F40E94030484E690E0F5CF0E9461
:100860009A05809341038F3FD1F3813091F48093B7
:1008700002048093400382E793E00E948F018091FD
:1008800002048111E3CF0E94FD0280E30E949305E0
:10089000E6CF823031F48FE00E94ED028111FBCF70
:1008A000EECF873029F40E94E3010E94C90406C0FC
:1008B000863059F40E94F3010E94C30488E097E057
:1008C0000E9455070E94B204DACF853029F40E94B5
:1008D000EB010E94C90406C0843039F40E943F0233
:1008E0000E94C3048CED95E0EBCF833039F40E9475
:1008F000E50288EB9BE00E945507C1CF883009F0E4
:10090000BECF0E94ED00BBCF84990EC08FE090E077
:100910000E945507849BFECF8FE090E00E94550710
:1009200080B38295817001C080E090E00895849941
:100930000BC084E190E00E94550780B382958F70D0
:1009400091E08927817001C080E090E00895CF9305
:10095000C2E06C2F82E00E94DC0FCF5FC830C9F785
:10096000CF910895CF93C1E06C2F80E00E94DC0FFF
:10097000CF5FC930C9F7CF9108950E94B20480E0DB
:1009800094E00C9419100E94B20467E081E00C948A
:10099000DC0F0E94B20462E081E00C94DC0F0E9444
:1009A000B20463E081E00C94DC0F0E94B20466E0C4
:1009B00081E00C94DC0F9C0140E050E084E0220FC9
:1009C000331F441F551F8A95D1F760E074E284EF0E
:1009D00090E00E948515215031093093900029B98B
:1009E0000895F89490911404E92FF0E0EC5FFB4F28
:1009F000808120911504283011F4909315049F5F95
:100A0000983018F49093140402C01092140478944F
:100A10000895F89490911604E92FF0E0E45FFB4FFD
:100A200080839F5F983018F49093160402C0109250
:100A300016042091160490910304291303C098E032
:100A400090931604559A7894089588EB8AB908957E
:100A50001AB808951F920F920FB60F9211240BB679
:100A60000F928F939F93EF93FF939CB18091150406
:100A70008830B1F0E82FF0E0EC5FFB4F90838F5FA0
:100A8000883018F48093150402C0109215049091D8
:100A9000150480911404981303C088E08093150412
:100AA000FF91EF919F918F910F900BBE0F900FBE12
:100AB0000F901F9018951F920F920FB60F9211244E
:100AC0000BB60F922F938F939F93EF93FF93809189
:100AD000030490911604891799F0E82FF0E0E45F81
:100AE000FB4F2081983011F4809316048F5F88307B
:100AF00018F48093030402C0109203042CB901C0BF
:100B00005598FF91EF919F918F912F910F900BBE70
:100B10000F900FBE0F901F90189580E895E20E94ED
:100B2000DB040C94250590911604983009F4FFCF4E
:100B30000C940905909114048091150498130C9459
:100B4000F1048FEF089590916500282F30E080E048
:100B5000A9014170507020FF81E09E7F982B9093F7
:100B60006500809165004115510511F490E001C0C8
:100B700092E08D7F892B809365008091650021FD37
:100B800002C090E001C098E0877F892B80936500C8
:100B9000809165008F7E809365008FEF8ABB6BBB71
:100BA00085E0982F9A95F1F7909165009460909365
:100BB0006500982F9A95F1F7909165009B7F90932F
:100BC00065008A95F1F71BBA1ABA089590916500ED
:100BD000282F30E080E0A9014170507020FF81E0B3
:100BE0009E7F982B9093650080916500411551057B
:100BF00011F490E001C092E08D7F892B8093650015
:100C00008091650021FD02C090E001C098E0877FDF
:100C1000892B8093650080916500806180936500D9
:100C20001ABA25E0822F8A95F1F7809165008460D9
:100C30008093650085E18A95F1F789B3909165000D
:100C40009B7F90936500922F9A95F1F708951F93DB
:100C5000CF93DF9390911704992371F0182F11709F
:100C6000CFEFDFEF812F0E94E605219787FD02C0BD
:100C700081E003C02097B1F780E0DF91CF911F9111
:100C800008958FEF809317048091640088608093AB
:100C900064008091640080618093640080916400AE
:100CA000846080936400809164008160809364001C
:100CB00080916400826080936400B89A1ABA80912F
:100CC0006500877F80936500809165008F7E8093AB
:100CD0006500809165008B7F809365008091650041
:100CE0008E7F80936500809165008D7F8093650085
:100CF000C098979B07C0979880EA9FE00197F1F70B
:100D0000979A04C080EA9FE00197F1F7C09A80E0CB
:100D10000E942706882351F081E00E94270688233D
:100D200011F082E001C081E08093170480911704E4
:100D30008F3F11F4109217048091170408951092B8
:100D400021041092200410921D0410921C04109291
:100D5000220410922304109224041092250410926D
:100D600019041092180410921B0410921A048FEFA9
:100D700093E090931F0480931E04C598C698BD9A73
:100D8000BE9ABF9AC79A1DBC1CBC8AEA8FBD82E17D
:100D90008EBD80E094E097BD86BD87B7846087BF35
:100DA00008951F920F920FB60F9211242F933F9325
:100DB0004F938F939F93AF93BF9380912004909113
:100DC00021049C01285E3F4F30932104209320048E
:100DD00043E0283E340778F0805D934090932104EF
:100DE0008093200480911C0490911D04019690939F
:100DF0001D0480931C0480911C0490911D049C018F
:100E00002F5F3F4F30931D0420931C0443E0283E86
:100E10003407C8F0875E934090931D0480931C04B0
:100E20008091220490912304A0912404B091250480
:100E30000196A11DB11D8093220490932304A093D9
:100E40002404B0932504809118049091190423E0A0
:100E50008F3F920710F080E094E09BBD8ABD8091A7
:100E60001A0490911B0443E08F3F940710F080E038
:100E700094E099BD88BD80911E0490911F0423E0E9
:100E80008F3F920710F080E094E090937900809378
:100E90007800BF91AF919F918F914F913F912F918A
:100EA0000F900FBE0F901F90189520EA3FE004C0EE
:100EB000F9013197F1F701970097D1F70895109252
:100EC000620480934304982F9F5F9093450496E9B2
:100ED00090936304F89403C078940000F894B09B56
:100EE000FBCF90EC9DB98FB996E998279093610458
:100EF000779A789480E00895B898C098BB9AC39A7E
:100F000080E00E945F0708951F920F920FB60F9224
:100F10000BB60F9211242F933F934F935F936F93D0
:100F20007F938F939F93AF93BF93EF93FF939FB163
:100F3000209163042927209363048091620488230D
:100F4000B1F4909341049C3130F01092430410921C
:100F5000410491E009C0492F50E02091450430E060
:100F600042175307FCF09F5F909345041BC0482F26
:100F700050E06091410470E0641775072CF04B5B02
:100F80005B4FFA0190830EC04150504046175707FF
:100F900049F4222339F0909142049F5F90934204D8
:100FA0001092410490914304891750F4E82FF0E027
:100FB000EA5DFB4F20812FB990916104922711C007
:100FC000891731F4909161049FB9109261040BC0AC
:100FD00090914504891758F49FEF9FB9909161044F
:100FE0009095909361048F5F8093620411C0B898CC
:100FF000C0981DB8B898C098809144048F5F8093C2
:1010000044047894809141040E946A0F0E945F0713
:10101000FF91EF91BF91AF919F918F917F916F91D0
:101020005F914F913F912F910F900BBE0F900FBE8C
:101030000F901F9018958091670408958091700417
:101040000895809364040895982F9052903608F084
:1010500080E8805290E0FC01EE0FFF1FE80FF91FBF
:10106000EE0FFF1FE050FF4F9081809166048823B0
:1010700009F49FE180E020E090FD8F5F2F5F253035
:1010800011F09695F9CF08951F93CF93DF93EC015C
:1010900010E005C021960E9424088F5F180F8881F8
:1010A0008823C1F7812FDF91CF911F9108951F935E
:1010B000CF93DF93EC0110E007C02196F9018491F2
:1010C0000E9424088F5F180F9E01FE0194919923BE
:1010D000A1F7812FDF91CF911F910895809366042E
:1010E0000895809166040895863130F4683020F4C4
:1010F000609365048093710408950F931F93DF93A9
:10110000CF930F92CDB7DEB7182F6854883018F5FB
:1011100080E069830E94270680E069810E94A30520
:1011200080E00E942706612F660F660F660F605CE5
:1011300080E00E94A30508E614E082E00E942706F2
:1011400082E0F80161918F010E94A305F4E000376D
:101150001F0799F723C0185081E069830E94270672
:1011600081E069810E94A30581E00E942706612F2A
:10117000660F660F660F605C81E00E94A30508E6BB
:1011800014E083E00E94270683E0F80161918F015B
:101190000E94A305F4E000371F0799F70F90CF9145
:1011A000DF911F910F910895FF920F931F93F82ED7
:1011B00018EB80E00E94270681E00E94270680E06D
:1011C000612F0E94A30581E0612F0E94A30500E02A
:1011D00082E00E94270683E00E94270682E06F2DAE
:1011E0000E94A30583E06F2D0E94A3050F5F0034CA
:1011F00079F71F5F103CE9F680E00E94270681E046
:101200000E94270680E068EB0E94A30581E068EB5E
:101210000E94A3051F910F91FF90089580E00E9406
:10122000D4081092650410927104089580E00E9421
:10123000270680E06FE30E94A30580E00E94270656
:1012400080E060EC0E94A30580E00E94270680E019
:1012500060E40E94A30580E00E94270680E068EB1E
:101260000E94A30581E00E94270681E06FE30E94AF
:10127000A30581E00E94270681E060EC0E94A3059F
:1012800081E00E94270681E060E40E94A30581E0DE
:101290000E94270681E068EB0E94A30580E00E947F
:1012A000D40881E08093640408950F931F93182F4E
:1012B000062F809367046093700480E00E942706E5
:1012C00081E00E942706069506950695085480E061
:1012D000602F0E94A30581E0602F0E94A30580E09B
:1012E0000E94270681E00E942706113438F080E032
:1012F00060E40E94A30581E0612F07C0612F605C5C
:1013000080E00E94A30581E060E40E94A3051F9194
:101310000F910895EF92FF920F931F93CF93DF9356
:1013200019EB47C00830E8F480E00E94270680E00F
:10133000612F0E94A30580E00E9427066F2D605C4C
:1013400080E00E94A30582E00E94E605C8E6D4E0A2
:1013500082E00E94E605899384E0C037D807C1F790
:101360001BC081E00E94270681E0612F0E94A30537
:1013700081E00E94270681E06F2D0E94A30583E093
:101380000E94E605C8E6D4E083E00E94E605899362
:1013900084E0C037D807C1F7802F6E2D0E947D08EA
:1013A0000F5F88E0F80E003109F0BCCF1F5F103CE2
:1013B00031F0FF2400E037E4E32EE10EB3CFE8E69E
:1013C000F4E0119284E0E037F807D9F710E0812FBC
:1013D00067E00E947D081F5F1031C9F780916504A6
:1013E000882319F0815080936504DF91CF911F917C
:1013F0000F91FF90EF900895EF92FF920F931F933C
:10140000E82E162F8091670487FD39C000E08034F4
:1014100008F001E0802F0E94270642E0F42EF00E33
:101420008F2D0E94E6058F2D0E94E60590916404A1
:1014300092FF02C0E0949B7FE122992319F41E2DB4
:10144000182B08C0913021F4109518231E2902C0D2
:101450001E2D1827802F0E94270660916704606464
:10146000802F0E94A305802F0E9427068F2D612FB9
:101470000E94A305809167048F5F809367041F918A
:101480000F91FF90EF90089590917004977061E034
:1014900070E002C0660F771F9A95E2F7882311F07B
:1014A000862F02C0862F60E00E94FC0908952F92CB
:1014B0003F924F925F926F927F928F929F92AF92E4
:1014C000BF92CF92DF92EF92FF920F931F93DF9321
:1014D000CF9300D000D000D0CDB7DEB7082F162FA5
:1014E0005A83498360906704E09070048E2D877062
:1014F0002FEF30E0F22E01C0FF0C8A95EAF7802F23
:1015000090E0019768E070E00E9471156F5FA62E71
:10151000BB24C50173E0880F991F7A95E1F7442435
:101520005524481A590ACC2468E0762E5FEF852EA0
:10153000912CBC82AB8271C08E2D8770D72CD81AAB
:101540001D1548F48D2D811B940102C035952795FA
:101550008A95E2F7F2228D2D8C0D90E08A9D100184
:101560008B9D300C9A9D300C112480E090E09E837E
:101570008D8343C04D815E81477050704115510588
:1015800071F5E695E695E695C1018E0F911DFC017A
:10159000A981BA81EA0FFB1FE40DF51D20E030E0C0
:1015A0006D817E819491A8E6B4E08C9186958C93B0
:1015B00090FF02C080688C93119684E0A037B80732
:1015C00011F09695F2CF2F5F3F4F2830310529F06B
:1015D000AB81BC81EA0FFB1FE5CF7E836D83485949
:1015E0005B4FFA0180818F216F2D0E94FC092D81B4
:1015F0003E812F5F3F4F3E832D83ED81E01708F43E
:10160000B9CF1D1508F4D12E1D19ED0CCD0C862D6A
:101610006E2D0E945509FF24FA94112309F08CCFF6
:1016200026960FB6F894DEBF0FBECDBFCF91DF91E7
:101630001F910F91FF90EF90DF90CF90BF90AF90F0
:101640009F908F907F906F905F904F903F902F90E2
:1016500008952F923F924F925F926F927F928F9256
:101660009F92AF92BF92CF92DF92EF92FF920F9331
:101670001F93DF93CF9300D000D000D0CDB7DEB75B
:10168000082F162F5A83498360906704E0907004F6
:101690008E2D87702FEF30E0F22E01C0FF0C8A955F
:1016A000EAF7802F90E0019768E070E00E947115E2
:1016B0006F5FA62EBB24C501A3E0880F991FAA95D2
:1016C000E1F744245524481A590ACC24F8E07F2E27
:1016D000EFEF8E2E912CBC82AB8271C08E2D877065
:1016E000D72CD81A1D1548F48D2D811B940102C0EA
:1016F000359527958A95E2F7F2228D2D8C0D90E095
:101700008A9D10018B9D300C9A9D300C112480E035
:1017100090E09E838D8343C04D815E814770507001
:101720004115510571F5E695E695E695C1018E0FD7
:10173000911DFC01A981BA81EA0FFB1FE40DF51D83
:1017400020E030E06D817E819081A8E6B4E08C914C
:1017500086958C9390FF02C080688C93119684E0EC
:10176000A037B80711F09695F2CF2F5F3F4F283082
:10177000310529F0AB81BC81EA0FFB1FE5CF7E83E9
:101780006D8348595B4FFA0180818F216F2D0E9434
:10179000FC092D813E812F5F3F4F3E832D83ED81DC
:1017A000E01708F4B9CF1D1508F4D12E1D19ED0C62
:1017B000CD0C862D6E2D0E945509FF24FA9411231D
:1017C00009F08CCF26960FB6F894DEBF0FBECDBFC2
:1017D000CF91DF911F910F91FF90EF90DF90CF900D
:1017E000BF90AF909F908F907F906F905F904F9041
:1017F0003F902F900895AF92BF92CF92DF92EF92D9
:10180000FF920F931F93CF93DF93A82E162FB090C4
:101810006704F09070048F2D87702FEF30E0022F57
:1018200001C0000F8A95EAF7B8E0CB2ECFEFD0E0E9
:1018300022C08F2D8770EC2CE81A1E1548F48E2DCF
:10184000811B9E0102C0359527958A95E2F70223F8
:10185000DA2C05C0802F602F0E94FC09DA94DD206D
:10186000C9F71E1508F4E12E1E19FE0C8B2D6F2DE5
:101870000E9455090FEF1123E1F6DF91CF911F91DF
:101880000F91FF90EF90DF90CF90BF90AF900895B1
:10189000682F81E00E94FB0B08950F931F93182F70
:1018A00080917004877021E030E0022F01C0000FAA
:1018B0008A95EAF705C0802F602F0E94FC0911501D
:1018C0001123C9F71F910F9108959F92AF92BF9274
:1018D000CF92DF92EF92FF920F931F93082F162F54
:1018E000F0906704E09070048F1561F4E61618F428
:1018F000862F8E1904C00E9455098E2D811B0E94CF
:10190000480C5EC0DE2C6E1559F4F81610F48F19D1
:1019100004C00E9455098F2D801B0E944D0C50C0A1
:101920008F1528F4AF2CA81A99249A9409C0F81698
:1019300018F09924AA2404C0A82EAF1899249394CF
:101940001E1528F4BE2CB11ACC24CA9409C0E11685
:1019500018F0CC24BB2404C0B12EBE18CC24C394F0
:1019600081E00E94440ABA14B0F4EA2CE694E194AF
:10197000F90CEB0C1E1414F4EA18DC0C8F2D6D2DF1
:101980000E94550981E00E94440AF90C8F2D8919A3
:10199000801779F715C0DB2CD694D194EC0CDA0CB7
:1019A0001D1414F4DB18F90C8F2D6E2D0E945509AF
:1019B00081E00E94440AEC0C8E2D8C19811779F776
:1019C000802F612F0E9455091F910F91FF90EF907A
:1019D000DF90CF90BF90AF909F9008958F929F928D
:1019E000AF92BF92CF92DF92EF92FF920F931F932D
:1019F000CF93DF93062F982F9052903608F080E80F
:101A0000805296E0899FE0011124C050DF4F188179
:101A100080916604882309F41FE1E02EFF24E7FC8F
:101A2000F0948FEF90E06C010E2C02C0CC0CDD1C0A
:101A30000A94E2F7AA24BB24AE18BF080A2C02C0FD
:101A4000959587950A94E2F7D82E85E0882E912CFB
:101A50008C0E9D1E10FF16C0898107FD09C090E005
:101A60000E2C02C0880F991F0A94E2F76C2D08C053
:101A700090E00A2C02C0959587950A94E2F76D2DA7
:101A80000E94FC092196C815D90511F01695E2CFE0
:101A900007FD03C080E06C2D02C080E06D2D0E9428
:101AA000FC09DF91CF911F910F91FF90EF90DF9094
:101AB000CF90BF90AF909F908F900895FF920F931B
:101AC0001F93082FF0906704109170041770612F16
:101AD0000E94EE0C112391F060917004685F8F2DCD
:101AE0000E945509612F6850802F0E94EE0C609172
:101AF00070046850809167040E9455091F910F91EE
:101B0000FF9008951F93CF93DF93EC01109266042A
:101B100036C01A3069F410927104809165048F5FA9
:101B200080936504883059F581E00E948A0927C0B6
:101B30001D3029F180917104853160F0109271049B
:101B4000809165048F5F80936504883019F481E08B
:101B50000E948A0990917104892F880F890F6091E2
:101B60006504660F660F660F880F0E945509812F66
:101B70000E945E0D809171048F5F809371041991B2
:101B8000112339F6DF91CF911F910895CF93DF9301
:101B9000EC0105C02196F90184910E945E0D9E0121
:101BA000FE0194919923B1F7DF91CF910895CF93DE
:101BB000DF93EC0103C021960E945E0D888188238B
:101BC000D1F7DF91CF91089590E0282F30E0F9010F
:101BD00083E0EE0FFF1F8A95E1F7E21BF30BE85855
:101BE000FB4F80818F3F09F091E0892F0895F89491
:101BF0009091B00480E0E0EBF4E02291820F911D1F
:101C00009093920480939104938180E02281820FCB
:101C1000911D9093940480939304958180E0248196
:101C2000820F911D9093960480939504978180E094
:101C30002681820F911D909398048093970491853B
:101C400080E02085820F911D90939A0480939904DF
:101C50007894F8942091B90480917404909175045B
:101C6000820F911D3091BA0420E0820F931F909350
:101C70008E0480938D042091BB0480917204909116
:101C80007304820F911D3091BC0420E0820F931FDA
:101C90009093A6048093A5049091BE0480E02091C7
:101CA000BD04820F911D9093CE048093CD0490913A
:101CB000C00480E02091BF04820F911D9093A40482
:101CC0008093A3049091C20480E02091C104820F0C
:101CD000911D90937704809376049091C40480E0E2
:101CE0002091C304820F911D9093AE048093AD04A4
:101CF0007894F8949091C70480E02091C604820FF4
:101D0000911D9093900480938F049091C90480E07A
:101D10002091C804820F911D9093CB048093CA0434
:101D2000789481E00895F89481E080937804789421
:101D30000895F8948AE080937804789481E0089577
:101D4000F89425E0209378048093790490937A04A2
:101D500060937B0470937C04789481E00895F894F8
:101D600022E0209378048093790490937A0460931E
:101D70007B0470937C04789481E00895209174042E
:101D800030917504FC01E21BF30B9F0180917204FA
:101D900090917304681B790BF89483E08093780426
:101DA000E093790430937A0460937B0470937C040D
:101DB00040937D0450937E04789481E00895F894D4
:101DC00024E0209378048093790490937A046093BC
:101DD0007B0470937C0440937D0450937E0478943C
:101DE00081E0089578949091860420E137E22150B3
:101DF000304011F09F3FD9F7F89496E09093860415
:101E0000809387046093880440938904789481E0E8
:101E1000089581E00895F8943091BC0420E0409149
:101E2000BB04F901E40FF11DAF013091BA0420E0C9
:101E3000E091B9042E0F311DFC01E21BF30BF0936E
:101E40007504E09374049B01241B350B30937304D9
:101E50002093720490938E0480938D047093A60453
:101E60006093A504789481E00895789420917F048C
:101E700080E197E2019711F02F3FE1F7F89488E0B5
:101E800080937F04789481E00895789420917F0472
:101E900080E197E2019711F02F3FE1F7F89487E096
:101EA00080937F04789481E00895789440917F0432
:101EB00020E137E22150304011F04F3FD9F7F8943C
:101EC00029E020937F048093800490938104789488
:101ED00081E008959091CC049F5F9093CC048B3166
:101EE00041F4AFEAB4E0E6E4F4E001900D928150F1
:101EF000E1F78FEF8093340480932D0480932604C0
:101F0000809178048F3F11F480E00DC0A6E2B4E028
:101F1000E8E7F4E087E001900D928150E1F78FEF60
:101F20008093780487E090917F049F3F79F0E82FB9
:101F3000F0E0EA5DFB4FAFE7B4E097E00D9001926F
:101F40009150E1F79FEF90937F04895F9091860411
:101F50009F3F81F0E82FF0E0EA5DFB4FA6E8B4E098
:101F600087E00D9001928150E1F78FEF8093860416
:101F700085E10895882311F487E0089585E10895A7
:101F800087E00E9440109093D0048093CF0408957E
:101F90008F9A97988AE090E00E945507979A84E676
:101FA00090E00E9455070895BF9AC79ABD9ABE9ABD
:101FB0008FEF82B984BB0895482F80FF0BC095B383
:101FC00021E030E0062E02C0220F331F0A94E2F710
:101FD000922B0CC085B321E030E0062E02C0220F08
:101FE000331F0A94E2F7922F9095982395BB41FFF7
:101FF0000AC083B121E030E002C0220F331F6A958E
:10200000E2F7822B0AC023B181E090E002C0880F82
:10201000991F6A95E2F78095822383B9089590937A
:102020001F0480931E04089580911E0490911F0444
:1020300008959093190480931804089580911804CA
:1020400090911904089590931B0480931A040895A5
:1020500080911A0490911B040895E1E6F0E09081CC
:1020600021E030E002C0220F331F8A95E2F720956D
:1020700092239083E2E6F0E08081822380830895BA
:1020800090E497B997B18770892B87B987EC86B9A7
:1020900001C000003699FDCF84B195B1392F20E001
:1020A000280F311D8091D1049091D204820F931F8B
:1020B0009093D2048093D104C90108958091D104F2
:1020C0009091D20408952F923F924F925F926F9217
:1020D0007F928F929F92AF92BF92CF92DF92EF92B8
:1020E000FF920F931F93CF93DF93CDB7DEB7639724
:1020F0000FB6F894DEBF0FBECDBF7C011B016A0195
:10210000FC0117821682838181FF66C3BE016F5F67
:102110007F4F4B01F7019381F10193FD859193FF6F
:1021200081911F01882309F453C3853239F493FD4B
:10213000859193FF81911F01853239F4B70190E0B9
:102140000E949C1656016501E5CF10E0512C20E05D
:102150002032A0F48B3269F030F4803259F08332AF
:1021600069F420612CC08D3239F0803339F421605C
:1021700026C02260246023C0286021C027FD27C01C
:1021800030ED380F3A3078F426FF06C0FAE01F9F92
:10219000300D1124132F13C06AE0569E300D112408
:1021A000532E20620CC08E3221F426FD11C3206410
:1021B00006C08C3611F4206802C0883641F4F10163
:1021C00093FD859193FF81911F018111C1CF9BEBFD
:1021D000980F933018F42061805E06C09BE9980F39
:1021E000933008F0AAC12F7E26FF16E02F73722EBF
:1021F000853621F4F22FF0647F2E08C0863621F454
:10220000622F6068762E02C01111115077FE07C050
:102210001C3348F444244394410E27E00BC018308B
:1022200030F4212F06C027E04CE3442E03C027E002
:1022300017E0412C560174E0A70EB11CF601608135
:10224000718182819381042DA4010E94A7156C01E4
:10225000098100FF02C003FF06C071FC07C072FCC9
:1022600008C0612C08C03DE2632E05C02BE2622E3F
:1022700002C090E2692E802F8C7099F1662011F0D7
:1022800084E001C083E0851510F0512C0BC0581A72
:1022900073FC08C0B70180E290E00E949C165A943B
:1022A000C9F7F3CF662029F0B701862D90E00E9490
:1022B0009C1603FD03C009E910E002C005E910E027
:1022C000F72DF0717F2EF8018491882309F476C2EE
:1022D00071108052B70190E00E949C160F5F1F4F53
:1022E000F2CF77FE0FC04C0C04FF04C08A8181330B
:1022F00009F44A94141474F5F8E0F41578F588E0BC
:10230000482E2CC076FC2AC0812F90E08C159D05AC
:102310009CF06CEFC6166FEFD60674F0772D7068E0
:10232000772E0AC0E2E0F0E0EC0FFD1FE10FF11D97
:102330008081803319F411501111F4CF77FE0EC053
:1023400044244394410E812F90E0C816D9062CF402
:102350001C1904C04424439401C010E077FE07C058
:102360001C141D043CF496012F5F3F4F05C025E06F
:1023700030E002C021E030E0662011F02F5F3F4FD7
:10238000112331F0412F50E04F5F5F4F240F351F75
:10239000452D50E02417350714F4521A01C0512C72
:1023A000872D897049F4552039F0B70180E290E01B
:1023B0000E949C165A94F7CF662029F0B701862D0B
:1023C00090E00E949C1673FC09C0552039F0B701BB
:1023D00080E390E00E949C165A94F7CF77FE5FC08E
:1023E0009C2D8D2DD7FE02C090E080E0692E782EC6
:1023F00040E050E0C601841991099D878C879601C1
:1024000026193709280D391D812F90E0EE27FF2767
:10241000E81BF90BFF87EE87FFEF6F167F0669F465
:10242000B7018EE290E02B8B3A8B488B598B0E9440
:102430009C16598948893A892B89C614D70454F0C7
:102440006C857D85661577052CF4F901E40FF51F81
:10245000818101C080E371E0671A71084F5F5F4FAF
:10246000EE85FF856E167F066CF0B70190E02B8B32
:102470003A8B488B598B0E949C162B893A89488944
:102480005989CACF6C147D0439F49A81963318F4B3
:10249000953311F404FF81E3B70190E04BC08A81CA
:1024A000813309F00F7EB70190E00E949C16111154
:1024B00005C074FE18C085E490E017C0B7018EE235
:1024C00090E00E949C1682E066246394680EF401FA
:1024D000E80FF11D8081B70190E00E949C16115019
:1024E00041F3862DF1CF85E690E0B7010E949C165E
:1024F000D7FC05C0C114D10439F404FF05C0D19440
:10250000C194D1088DE201C08BE2B70190E00E9436
:102510009C1680E36AE0C616D1042CF08F5FFAE0C7
:10252000CF1AD108F7CFB70190E00E949C16B701EF
:10253000C601C0960E949C1641C1833631F0833794
:1025400079F0833509F058C021C0560172E0A70E1A
:10255000B11CF6018081898301E010E0640114C0A0
:102560005601F2E0AF0EB11CF601C080D18026FF0B
:1025700003C0612F70E002C06FEF7FEFC6012B8BAD
:102580000E9491168C012B892F7715C05601F2E01D
:10259000AF0EB11CF601C080D18026FF03C0612FB1
:1025A00070E002C06FEF7FEFC6012B8B0E947F1699
:1025B0008C012B892068722E23FD1AC0852D90E096
:1025C00008171907A8F4B70180E290E00E949C1652
:1025D0005A94F4CFF60177FC859177FE81916F01D3
:1025E000B70190E00E949C1651105A9401501109B5
:1025F0000115110579F7E2C0843611F0893651F5DD
:10260000560127FF09C0F4E0AF0EB11CF60160814E
:102610007181828193810AC0F2E0AF0EB11CF60194
:1026200060817181882777FD8095982F022F0F7622
:1026300097FF08C090958095709561957F4F8F4F5B
:102640009F4F00682AE030E0A4010E94FD16C82ECA
:10265000C8183EC0022F853721F40F7E2AE030E0F3
:102660001DC0097F8F3691F018F4883559F0B0C03D
:10267000803719F0883711F0ABC0006104FF09C042
:10268000046007C024FF08C0066006C028E030E0F0
:1026900005C020E130E002C020E132E0560107FF32
:1026A00009C0F4E0AF0EB11CF60160817181828136
:1026B000938108C0F2E0AF0EB11CF6016081718118
:1026C00080E090E0A4010E94FD16C82EC8180F7784
:1026D00006FF0BC0202F2E7FC11650F404FF0AC046
:1026E00002FD08C0202F2E7E05C0DC2C202F03C049
:1026F000DC2C01C0D12E24FF0DC0FE01EC0DF11D1C
:102700008081803311F4297E09C022FF06C0D39452
:10271000D39404C0822F867809F0D39423FD13C08C
:1027200020FF06C01C2DD51418F4150D1D19D52C2D
:10273000D51468F4B70180E290E02B8B0E949C16C0
:10274000D3942B89F5CFD51410F45D1801C0512C0A
:1027500024FF12C0B70180E390E02B8B0E949C16EF
:102760002B8922FF17C021FF03C088E590E002C03B
:1027700088E790E0B7010CC0822F867859F021FDE0
:1027800002C080E201C08BE227FD8DE2B70190E03C
:102790000E949C16C11638F4B70180E390E00E94B5
:1027A0009C161150F7CFCA94F401EC0DF11D8081F5
:1027B000B70190E00E949C16C110F5CF552009F496
:1027C000C2CCB70180E290E00E949C165A94F6CFEA
:1027D000F7018681978102C08FEF9FEF63960FB656
:1027E000F894DEBF0FBECDBFDF91CF911F910F9147
:1027F000FF90EF90DF90CF90BF90AF909F908F9021
:102800007F906F905F904F903F902F900895505819
:10281000BB27AA270ED0B4C0A5D030F0AAD020F094
:1028200031F49F3F11F41EF49AC00EF4E095E7FBDB
:1028300090C0E92FB6D080F3BA17620773078407F8
:10284000950718F071F49EF5CEC00EF4E0950B2EAE
:10285000BA2FA02D0B01B90190010C01CA01A001F2
:102860001124FF27591B99F0593F50F4503E68F14D
:102870001A16F040A22F232F342F4427585FF3CF8E
:10288000469537952795A795F0405395C9F77EF45F
:102890001F16BA0B620B730B840BBAF09150A1F0A8
:1028A000FF0FBB1F661F771F881FC2F70EC0BA0F2E
:1028B000621F731F841F48F4879577956795B795B6
:1028C000F7959E3F08F0B3CF9395880F08F09927AE
:1028D000EE0F979587950895E89409C097FB3EF40D
:1028E00090958095709561957F4F8F4F9F4F99235D
:1028F000A9F0F92F96E9BB279395F69587957795DB
:102900006795B795F111F8CFFAF4BB0F11F460FF9A
:102910001BC06F5F7F4F8F4F9F4F16C0882311F0F2
:1029200096E911C0772321F09EE8872F762F05C006
:10293000662371F096E8862F70E060E02AF09A95A1
:10294000660F771F881FDAF7880F9695879597F996
:10295000089597F99F6780E870E060E008959FEF21
:1029600080EC089500240A94161617061806090626
:10297000089500240A9412161306140605060895F5
:10298000092E0394000C11F4882352F0BB0F40F47D
:10299000BF2B11F460FF04C06F5F7F4F8F4F9F4FBD
:1029A000089557FD9058440F551F59F05F3F71F03F
:1029B0004795880F97FB991F61F09F3F79F08795A6
:1029C0000895121613061406551FF2CF4695F1DF2F
:1029D00008C0161617061806991FF1CF86957105BF
:1029E000610508940895E894BB2766277727CB01F3
:1029F00097F908950BD0C4CFB5DF28F0BADF18F0EF
:102A0000952309F0A6CFABCF1124EECFCADFA0F3F8
:102A1000959FD1F3950F50E0551F629FF001729F73
:102A2000BB27F00DB11D639FAA27F00DB11DAA1F92
:102A3000649F6627B00DA11D661F829F2227B00DDF
:102A4000A11D621F739FB00DA11D621F839FA00D6A
:102A5000611D221F749F3327A00D611D231F849FBA
:102A6000600D211D822F762F6A2F11249F57504011
:102A70008AF0E1F088234AF0EE0FFF1FBB1F661FAC
:102A8000771F881F91505040A9F79E3F510570F065
:102A900060CFAACF5F3FECF3983EDCF38695779545
:102AA0006795B795F795E7959F5FC1F7FE2B880F60
:102AB000911D9695879597F90895AA1BBB1B51E127
:102AC00007C0AA1FBB1FA617B70710F0A61BB70B9E
:102AD000881F991F5A95A9F780959095BC01CD0143
:102AE000089597FB072E16F4009407D077FD09D0C0
:102AF0000E945D1507FC05D03EF4909581959F4F8F
:102B00000895709561957F4F0895A1E21A2EAA1B32
:102B1000BB1BFD010DC0AA1FBB1FEE1FFF1FA2178D
:102B2000B307E407F50720F0A21BB30BE40BF50B8A
:102B3000661F771F881F991F1A9469F76095709513
:102B4000809590959B01AC01BD01CF01089528307F
:102B500008F027E03327DA01990F311D87FD9160D6
:102B600000966105710539F432602E5F3D9330E3C4
:102B70002A95E1F708959F3F30F08038710561058F
:102B800009F03C5F3C5F3D93913008F08068911DF7
:102B9000DF93CF931F930F93FF92EF92192F987F9C
:102BA0009695E92F96959695E90FFF27E950FF4FE7
:102BB00099273327EE24FF24A701E7010590089405
:102BC000079428F4360FE71EF81E491F511D660FA3
:102BD000771F881F991F0694A1F70590079428F482
:102BE000E70EF81E491F561FC11D770F881F991F3A
:102BF000661F0694A1F70590079428F4F80E491F64
:102C0000561FC71FD11D880F991F661F771F069477
:102C1000A1F70590079420F4490F561FC71FD81F2E
:102C2000990F661F771F881F0694A9F78491109546
:102C3000177041F0D695C79557954795F794E79447
:102C40001A95C1F7EDE9F0E068941590159135916A
:102C50006591959105907FE27395E118F10A430B18
:102C6000560BC90BD009C0F7E10CF11E431F561FCC
:102C7000C91FD01D7EF4703311F48A95E6CFE89415
:102C8000015030F0080F0AF40027021708F4202F33
:102C90002395022F7A3328F079E37D932A95E9F77B
:102CA00010C07D932A9589F6069497956795379578
:102CB00017951794E118F10A430B560BC90BD0096D
:102CC00098F023957E9173957A3308F070E37C93A6
:102CD0002013B8F77E9170617D9330F0839571E396
:102CE0007D9370E32A95E1F71124EF90FF900F9107
:102CF0001F91CF91DF91992787FD90950895FC0151
:102D00000590615070400110D8F7809590958E0F16
:102D10009F1F0895FB01DC0101900D920020E1F757
:102D20000895FC016150704001900110D8F7809522
:102D300090958E0F9F1F08950F931F93CF93DF934E
:102D4000182F092FEB018B8181FD03C08FEF9FEFBF
:102D500020C082FF10C04E815F812C813D814217CF
:102D600053077CF4E881F9819F012F5F3F4F39833E
:102D70002883108306C0E885F985812F0995892B62
:102D800029F72E813F812F5F3F4F3F832E83812F75
:102D9000902FDF91CF911F910F9108950F931F9363
:102DA000CF93DF93CDB7DEB72E970FB6F894DEBF83
:102DB0000FBECDBF0D891E8986E08C831A830983DF
:102DC0008FEF9FE79E838D83AE01475E5F4F6F89D4
:102DD000788DCE0101960E946310EF81F885E00F97
:102DE000F11F10822E960FB6F894DEBF0FBECDBF36
:102DF000DF91CF911F910F910895FA01AA272830F2
:102E000051F1203181F1E8946F936E7F6E5F7F4FB7
:102E10008F4F9F4FAF4FB1E03ED0B4E03CD0670F33
:102E2000781F891F9A1FA11D680F791F8A1F911D86
:102E3000A11D6A0F711D811D911DA11D20D009F4D6
:102E400068943F912AE0269F11243019305D319318
:102E5000DEF6CF010895462F4770405D4193B3E001
:102E60000FD0C9F7F6CF462F4F70405D4A3318F0A8
:102E7000495D31FD4052419302D0A9F7EACFB4E059
:102E8000A6959795879577956795BA95C9F7009711
:102E90006105710508959B01AC010A2E06945795B2
:102EA000479537952795BA95C9F7620F731F841F09
:0A2EB000951FA01D0895F894FFCFB0
:102EBA000300000000000400005F00000E0007008D
:102ECA0007001F147F147F141F242A7F2A121F232E
:102EDA00130864621F364955225006000503000094
:102EEA000E001C2241000E0041221C001F14083E45
:102EFA0008141F08083E08080600A06000000F0812
:102F0A00080808080600606000000E00601C030044
:102F1A001F3E5149453E0E00427F40001F4261510B
:102F2A0049461D2141454B311F1814127F101D2798
:102F3A0045454539173C4A4949301E01710905037F
:102F4A001D36494949361D064949291E06003636A5
:102F5A0000000600AC6C00000F08142241000F1498
:102F6A00141414141E00412214081F0201510906E8
:102F7A001F324979413E1F7C1211127C177F494941
:102F8A004936173E414141221F7F4141221C177F8A
:102F9A0049494941177F09090901173E4149497AB7
:102FAA00177F0808087F0E00417F41001F2040411B
:102FBA003F011F7F08142241177F404040401F7F76
:102FCA00020C027F1F7F0408107F173E4141413ED9
:102FDA00177F09090906173E414141BE1D7F09199C
:102FEA0029461746494949311F01017F0101173F07
:102FFA004040403F1F1F2040201F1F3F4038403F96
:10300A001F63140814631F07087008071F615149DA
:10301A0045430E007F4141000E00031C60000E0074
:10302A0041417F000E04020102041F40404040401B
:10303A000C0000030400172054545478177F4844A6
:10304A0044381738444444201D384444487F1738CC
:10305A005454541817087E0901021718A4A4A47816
:10306A00177F080404780E00447D40000D408084D8
:10307A007D000F7F102844000E00417F40001F7C16
:10308A0004780478177C08040478173844444438D0
:10309A0017FC242424181718242424FC177C080459
:1030AA00040817485454542017043F4440201D3C38
:1030BA004040207C1F1C2040201C1F3C4030403CCC
:1030CA001F4428102844171CA0A0A07C1F44645445
:1030DA004C440E00083641000400007F00000E0038
:1030EA00413608001F02010204021FAA55AA55AA66
:1030FA00010F5643433A2025322E316620560020CE
:10310A0020202020202020202020202020202020B5
:10311A002020202020004D414E55414C204D4F4447
:0C312A0045004155544F204D4F444500D6
:00000001FF
